:020000040800F2
:10000000D80B00205502000867090008B90600084F
:10001000650900086503000895130008000000004A
:100020000000000000000000000000009D0100082A
:100030005105000800000000F10100087D0B0008D8
:100040006F0200086F0200086F0200086F020008CC
:100050006F0200086F0200086F0200086F020008BC
:100060006F0200086F0200086F0200086F020008AC
:100070006F0200086F0200086F0200086F0200089C
:100080006F0200086F0200086F0200086F0200088C
:100090006F0200086F0200086F0200086F0200087C
:1000A0006F0200086F0200086F0200086F0200086C
:1000B0006F0200086F0200086F0200086F0200085C
:1000C0006F0200086F0200086F0200086F0200084C
:1000D0006F0200082D1100086F0200086F0200086F
:1000E0006F0200086F0200086F0200086F0200082C
:1000F0006F0200086F0200086F0200086F0200081C
:100100006F0200086F0200086F0200086F0200080B
:100110006F0200086F0200086F0200086F020008FB
:100120006F0200086F0200086F0200086F020008EB
:100130006F0200086F0200086F0200086F020008DB
:100140006F0200086F0200086F0200086F020008CB
:100150006F0200086F0200086F0200086F020008BB
:100160006F0200086F0200086F0200086F020008AB
:100170006F0200086F0200086F0200086F0200089B
:100180006F0200086F020008DFF80CD000F08AF858
:100190000048004705160008D80B00202A4B1968B4
:1001A0000868B0E8F04F80F30988BFF36F8F4FF015
:1001B000000080F3118870470000000006480068C6
:1001C000006880F3088862B661B6BFF34F8FBFF353
:1001D0006F8F00DF00BF00BF08ED00E0DFF80C000C
:1001E000016841F470010160704700BF88ED00E0D4
:1001F000EFF30980BFF36F8F134B1A681EF0100FD7
:1002000008BF20ED108A20E9F04F106008B44FF0CD
:10021000500080F31188BFF34F8FBFF36F8F01F051
:1002200067FA4FF0000080F3118808BC196808686D
:10023000B0E8F04F1EF0100F08BFB0EC108A80F34A
:100240000988BFF36F8F7047C0000020EFF305806F
:10025000704700000648804706480047FEE7FEE773
:10026000FEE7FEE7FEE7FEE7FEE7FEE7FEE7FEE766
:10027000910B00088901000830B50B4601460020AB
:100280002022012409E021FA02F59D4205D303FA58
:1002900002F5491B04FA02F52844151EA2F10102D9
:1002A000F1DC30BD064C074D06E0E06840F001038C
:1002B00094E8070098471034AC42F6D3FFF768FF84
:1002C000081A0008281A00084FF47A744FF4407096
:1002D00000F07CFB00F030FA00F0F8FA641EA4B2E3
:1002E000FCD2002000F094FA00F0EAFF00F032F9AE
:1002F00000F0E4F940F2473440F2CF758023154A0C
:100300002146284600F072FC134E802332462146D7
:10031000284600F007FDB31532462146284600F076
:1003200001FD731532462146284600F0FBFCFA21F8
:100330000A4800F01BFC0A4CFA21204600F018FC89
:10034000FA21204600F016FCFA21204600F014FCA9
:10035000FEE70000000002400004024000200040D0
:1003600000080040FEE70000074A904201D207481B
:1003700001E005481038064A8B0001EA020101D568
:10038000C1607047816070471064024000600240A5
:100390007D0F7D0F0029016802D041F0010101E0CD
:1003A00021F00101016070472DE9F043016821F05F
:1003B000010101600021016041608160C160016153
:1003C000212141613C493C4A3D251039904202D1EE
:1003D0008D60BDE8F083384A4FF47466183290425D
:1003E00001D18E60F5E7344A4FF4741730329042F1
:1003F00001D18F60EDE7304A4FF0746C4832904283
:1004000002D1C1F808C0E4E72B4B2C4A6033984274
:1004100001D1CA60DDE7284C294B7834A04201D1D4
:10042000CB60D6E7DFF89080264C08F19008404575
:1004300001D1CC60CDE7DFF880804FF03D5908F165
:10044000A808404502D1C1F80C90C2E71E49DFF868
:1004500078800839404501D10D60BAE71A4D18354A
:10046000A84201D10E60B4E7174D3035A84201D142
:100470000F60AEE7144D4835A84202D1C1F800C064
:10048000A7E7114D10496035091FA84201D10A6044
:100490009FE70D4A7832904201D10B6099E70A4AF2
:1004A0009032904201D10C6093E7074AA832904203
:1004B0008FD1C1F800908CE7106002403D00002011
:1004C000400F002000003D20106402400B0607D5BD
:1004D000436912B143F0800301E023F080034361DC
:1004E000802908D0002A026801F01E0101D00A43C9
:1004F00000E08A430260704730B50368124ACC6856
:1005000013400A682243D1E905452C432243CC69B4
:1005100022430C6A22434C6A22438C6A22434C6B6E
:1005200022438C6B22431A430260426922F0070384
:10053000D1E90B2422431A4342610A6942604A68A6
:1005400082608968C16030BD3F801CF041607047A7
:1005500070470000F0B5012187B0084600F040FA6E
:100560000121102000F054FA022500248DF80640E5
:1005700001268DF807602802264F8DF8055000905F
:100580008DF804506946384600F048F8680200903B
:100590008DF804506946384600F040F807220A21D9
:1005A000384600F077F807220921384600F072F843
:1005B0004FF4E1300290ADF810400C20164DADF82C
:1005C0000C40ADF81200ADF80E40ADF8144002A991
:1005D000284600F017FE25208DF8180007208DF81A
:1005E00019008DF81A408DF81B6006A800F0BCF9C0
:1005F000012240F22441284600F0ECFD0122402176
:10060000284600F0B9FD0121284600F0ABFD07B0F7
:10061000F0BD00000000024000100140F0B50022D3
:1006200001274FF0030C0B6807FA02F52B40AB4291
:100630002CD1066853000CFA03F4A64306600E7929
:10064000D0F800E09E4046EA0E0606600E79012EC4
:1006500001D0022E12D18668A64386604E79D0F86A
:1006600008E09E4046EA0E0686604668AE43466055
:1006700045688E799640B6B235434560C568A54356
:10068000C560CC799C40C3681C43C460521C102ACE
:10069000C9D3F0BD4B07DB0E9A40C90810B500EB7B
:1006A0008100016A0F249C40A1430162016A114349
:1006B000016210BD01837047FEE700001CB50121F7
:1006C000182000F08DF940F2FE30009000208DF8E7
:1006D00004000220164C8DF8070069462046FFF7FB
:1006E0009DFF69462046FFF799FF69462046FFF7C0
:1006F00095FF69462046FFF791FF69462046FFF7C0
:100700008DFF69462046FFF789FF69462046FFF7BF
:1007100085FF084C69462046FFF780FF6946204662
:10072000FFF77CFF69462046FFF778FF1CBD0000FD
:10073000000C0240001002402DE9FC5F0121042062
:1007400000F04EF901248DF8044000208DF80600D9
:100750008DF8074004258DF80500009569462B4863
:10076000FFF75CFF0826694628480096FFF756FF0A
:100770000227694625480097FFF750FF694623483E
:100780000094FFF74BFF4FF4807869461F48CDF87F
:100790000080FFF743FF4FF4007969461B48CDF80E
:1007A0000090FFF73BFF4FF4806A69461748CDF889
:1007B00000A0FFF733FF4FF4006B69461348CDF8F4
:1007C00000B0FFF72BFF2003009069460F48FFF7AA
:1007D00025FF0E48183005800680078004804146BA
:1007E0000A48FFF767FF49460848FFF763FF51468D
:1007F0000648FFF75FFF59460448FFF75BFF2103F8
:100800000248FFF757FFBDE8FC9F000000080240C8
:1008100010B52C4C072805D2DFE800F004131D2783
:10082000313B450005222849204600F0C8FD2649F5
:1008300006220A31204600F0C2FD23490F22103162
:100840003AE021490522491D204600F0B8FD1E4925
:100850000F221F3130E01C490522491D204600F0BF
:10086000AEFD19490F222E3126E017490522491DF8
:10087000204600F0A4FD14490F223D311CE012492E
:100880000522491D204600F09AFD0F490F224C31E8
:1008900012E00D490522491D204600F090FD0A494D
:1008A0000F225B3108E008490522491D204600F06F
:1008B00086FD05490F226A312046BDE8104000F050
:1008C0007EBD0000001401404400002070B586B0D9
:1008D0000121042000F084F80121202000F098F884
:1008E00000248DF8064001208DF8070002254020E5
:1008F0001A4E8DF8055000908DF804506946304628
:10090000FFF78CFE802000908DF804506946304639
:10091000FFF784FE082207213046FFF7BBFE0822BE
:1009200006213046FFF7B6FE4FF41650ADF80C40E6
:100930000290ADF80E40ADF81040ADF814400C2018
:10094000074CADF8120002A9204600F05BFC012123
:10095000204600F007FC06B070BD00000008024011
:1009600000140140FEE7704730B50F23C2780178CC
:100970000125FAB1144A126801F1E02102F4E062A3
:10098000C2F5E062C2F30722C2F10404D340427808
:10099000A24084781C401443220181F8002400788E
:1009A00000F01F018D404009800000F1E020C0F8F8
:1009B000005130BD01F01F0085404809800000F162
:1009C000E020C0F8805130BD0CED00E00249084342
:1009D00002490860704700000000FA050CED00E0D5
:1009E000044A0029116801D0014300E081431160ED
:1009F0007047000030380240044A0029116801D0D5
:100A0000014300E08143116070470000403802401C
:100A1000044A0029116801D0014300E081431160BC
:100A2000704700004438024070B5204B1968204CD4
:100A300011F00C0104D06610042903D0082903D05A
:100A400004601BE0066019E0184A121F1168C1F328
:100A50008055116801F03F0115B1B6FBF1F101E0DD
:100A6000B4FBF1F114681268C4F388146143C2F353
:100A70000142521C5200B1FBF2F1016019680F22D1
:100A800002EA11110B4A545C0168E14041601C68A4
:100A9000072505EA9424145D21FA04F484601B6898
:100AA00005EA5333D25CD140C16070BD08380240C2
:100AB0000024F400000000200CB500222749009219
:100AC0000192086840F4803008604FF4A043086841
:100AD00000F4003001900098401C0090019810B97B
:100AE00000989842F3D10868800334D50120019022
:100AF0001A484030026842F080520260184802688A
:100B000042F4404202601548083002680260026800
:100B100042F400420260026842F4A0520260031FE5
:100B2000104A1A600A6842F080720A600A689201EC
:100B3000FCD50D4940F205720A60016821F00301FD
:100B40000160016841F0020101600168C1F38101A7
:100B50000229FAD10CBD01920CBD00000038024000
:100B60000070004008544007003C024000F098BA72
:100B700000F098BA00F098BA00F098BA10B500F0FA
:100B80006DFE012803D0BDE8104000F0F3BD10BD9C
:100B9000124810B5016841F4700101601048016805
:100BA00041F0010101600E4A002108321160026823
:100BB0000C4B1A400260031D0B4A1A60026822F4B3
:100BC0008022026006480C300160FFF775FF034980
:100BD0004FF000608039086010BD000088ED00E033
:100BE00000380240FFFFF6FE103000242DE9F043EC
:100BF0000E46012180460F028BB01C4691463846B6
:100C0000FFF7FAFEBC423BD012DC102C30D008DCDF
:100C1000012C25D0022C25D0042C25D0082C3ED127
:100C200024E0202C26D0402C26D0802C37D125E063
:100C3000B4F5805F2CD009DCB4F5007F22D0B4F588
:100C4000806F21D0B4F5006F29D11FE0B4F5005FAB
:100C500020D0B4F5804F1FD0B4F5004F1FD11DE058
:100C600000251CE001251AE0022518E0032516E006
:100C7000042514E0052512E0062510E007250EE006
:100C800008250CE009250AE00A2508E00B2506E006
:100C90000C2504E00D2502E00E2500E00F250121C2
:100CA0000846FFF79DFE022000948DF80400002402
:100CB0008DF8064001278DF8077003208DF8050098
:100CC00069464846FFF7AAFC092229464846FFF72D
:100CD000E1FC134DADF80860ADF80A40CDF80C808A
:100CE000ADF8104002A9284600F0E2F96020ADF806
:100CF0001400ADF81670ADF8204005A9284600F0A4
:100D0000D1F80821284600F0FDF80121284600F01E
:100D1000B5F80121284600F0BBF80BB0BDE8F08320
:100D2000002000402DE9F0430E4680468BB01C4663
:100D3000914601210420FFF75FFEB4F5807F3BD090
:100D400012DC102C30D008DC012C25D0022C25D050
:100D5000042C25D0082C3ED124E0202C26D0402C79
:100D600026D0802C37D125E0B4F5805F2CD009DC6B
:100D7000B4F5007F22D0B4F5806F21D0B4F5006FB8
:100D800029D11FE0B4F5005F20D0B4F5804F1FD00B
:100D9000B4F5004F1FD11DE000251CE001251AE02D
:100DA000022518E0032516E0042514E0052512E0CD
:100DB000062510E007250EE008250CE009250AE0CD
:100DC0000A2508E00B2506E00C2504E00D2502E0CD
:100DD0000E2500E00F2501210220FFF701FE022071
:100DE00005948DF8180000248DF81A4001278DF81D
:100DF0001B7003208DF8190005A94846FFF70EFC6B
:100E0000022229464846FFF745FC1B4DADF81C6001
:100E1000ADF81E40CDF82080ADF8244007A9284643
:100E200000F046F96020ADF80000ADF80270ADF8B2
:100E30000C406946284600F06BF80821284600F06F
:100E4000A7F86946284600F0ADF80821284600F0CA
:100E5000E7F86946284600F0E9F80821284600F03E
:100E600015F90121284600F009F80121284600F073
:100E70000FF80BB0BDE8F08300080040002901889E
:100E800002D041F0800101E021F080010180704733
:100E90000029018802D041F0010101E021F00101A7
:100EA0000180704730B5028C22F001020284028C6E
:100EB0008388048B22F0020224F073050C882C43F3
:100EC0008D8915434A882A430C4DA84202D00C4D07
:100ED000A8420DD122F00805CA8923F440732A43A1
:100EE00022F004058A882A430D8A1D434B8A2B432E
:100EF0008380048389684163028430BD000001401F
:100F000000040140028B22F008020A43028370476A
:100F100070B5028C22F010020284028C8388048B4C
:100F20000D8824F4E6464FF6FF7404EA05253543A0
:100F30008E8922F0200204EA061616434A8804EA43
:100F400002123243104EB04202D0104EB04215D1C0
:100F500022F08006CA8923F4406304EA0212324375
:100F600022F040068A8804EA021232430E8A04EA1A
:100F700086061E434B8A04EA83033343838005833A
:100F800089688163028470BD000001400004014053
:100F9000028B4FF6FF7322F4006203EA0121114332
:100FA0000183704770B5028C22F480720284028C37
:100FB0008388848B0D8824F0730425438E894FF633
:100FC000FF7422F4007204EA062616434A8804EAF3
:100FD00002223243104EB04202D0104EB04215D120
:100FE00022F40066CA8923F4405304EA0222324301
:100FF00022F480668A8804EA022232430E8A04EAD6
:1010000006161E434B8A04EA031333438380858309
:101010008968C163028470BD000001400004014082
:10102000828B22F008020A438283704770B5028CDB
:1010300022F480520284058C8288838B0C8823F4EE
:10104000E6464FF6FF7303EA0424344325F40056C2
:101050008D8903EA053535434E8803EA06362E436B
:10106000084DA84202D0084DA84205D122F480457F
:101070000A8A03EA82122A4382808483896801648F
:10108000068470BD0000014000040140828B4FF6D1
:10109000FF7322F4006203EA012111438183704748
:1010A0004163704781637047C16370470164704753
:1010B00030B50288164C174DA0420DD0A8420BD077
:1010C000B0F1804F08D0144B984205D0134B984292
:1010D00002D0134B984203D122F070034A881A437E
:1010E000104B984206D0104B984203D022F4407324
:1010F0000A891A4302804A68C2620A880285A042AD
:1011000001D0A84201D1897A01860121818230BDB6
:1011100000000140000401400004004000080040BD
:10112000000C0040001000400014004070B550203A
:10113000EFF3118480F31188BFF34F8FBFF36F8FEC
:10114000074D40F22441284600F025F820B100F078
:10115000F7F8284600F0ACF884F3118870BD000061
:10116000001001400029818902D041F4005101E0C2
:1011700021F4005181817047002A828A01D00A43FC
:1011800000E08A43828270470246002012880A42A9
:1011900000D00120704770B501F01F050126002422
:1011A000C1F3421306FA05F2012B0FD0022B0FD028
:1011B000838A4FEA11210088134206FA01F600EAF9
:1011C000060001D000B10124204670BD8389F0E7FC
:1011D000038AEEE710B5C1F3421301F01F040121A9
:1011E000A140012B07D0022B07D01430002A02683F
:1011F00005D00A4304E00C30F8E71030F6E78A43E4
:10120000026010BD7FB50446008A0D46C98820F4EF
:10121000405001432182A08941F20C618843A98892
:101220002A8911436A8902431143A181A08A20F4CB
:101230004071A8890843A0826846FFF7F5FB1A4869
:10124000844202D01948844201D1039800E00298F8
:10125000A189090400EBC00101EB0010296801D548
:10126000490000E08900B0FBF1F06422B0FBF2F12C
:1012700009010B096FF018056B4300EB8300A3898C
:101280001D044FF0320306D503EBC000B0FBF2F0B3
:1012900000F0070005E003EB0010B0FBF2F000F0F7
:1012A0000F00084320817FBD001001400014014061
:1012B0008088C0F308007047C1F30801818070473F
:1012C00010B5012190B08805FFF78AFB194C204624
:1012D000FFF76AF84FF00060009017480190174838
:1012E0000021CDE902014FF47A70CDE90401201507
:1012F000CDE906018010CDE908104FF44030CDE96A
:101300000A010320CDE90C010E9169462046FFF742
:10131000F3F84FF081512046FFF726F8012204210F
:101320002046FFF7D3F801212046FFF733F810B02D
:1013300010BD000040640240041001400C01002078
:1013400038B5114C00212046FFF724F84FF08151A9
:101350002046FFF709F84FF47A712046FFF7F6F8B8
:1013600001212046FFF716F808486946006800F09A
:1013700017FA0098002806D00549A0050860BFF3B9
:101380004F8FBFF36F8F38BD4064024030000020A4
:1013900004ED00E0FEE770B50D460446402120460E
:1013A000FFF7F2FE0128F9D129462046FFF784FF16
:1013B00080212046FFF7E8FE0028F9D070BD70B507
:1013C00014460D46064604E029783046FFF7E3FF51
:1013D0006D1C641EE4B2F7D240213046FFF7D4FE04
:1013E0000028F9D070BD00000FB4054B10B503A95B
:1013F000044A029800F018F810BC5DF814FB0000D5
:10140000E11500080801002002E008C8121F08C109
:10141000002AFAD170477047002001E001C1121F75
:10142000002AFBD1704700002DE9FF4F8BB09A4690
:101430000F460546002606E025280BD052460D999A
:1014400090476D1C761C28780028F5D10FB03046E7
:10145000BDE8F08F0024A0460122604900E004436B
:1014600015F8013F203B02FA03F00842F7D1287833
:101470002E2817D115F8010F44F004042A280ED0A5
:101480006FF02F022878A0F1300109290AD808EB63
:10149000880102EB410100EB01086D1CF2E757F8EF
:1014A000048B6D1C287869283ED006DC0028CDD03E
:1014B00063280BD0642804D136E0732810D0752837
:1014C0004BD052460D999047761C85E017F8040BD7
:1014D0008DF8000000208DF80100E946012003E0AE
:1014E00057F8049B4FF0FF3061074FF0000401D420
:1014F0000AE0641C44450DDA8442FADB19F8041052
:101500000029F6D106E0641C8442FCDB19F80410C3
:101510000029F8D1264404E019F8010B52460D9930
:101520009047641EF8D257E001CF4FF00A0B002815
:1015300002DA40422D2102E0210504D52B218DF84D
:101540002410012103E0E10705D02021F7E70DF188
:10155000200908910CE00021F9E701CF4FF00A0BB8
:10156000F9E75946FEF788FE01F1300209F8012D2E
:101570000028F6D1ADEB090000F1200B600701D483
:101580004FF00108D84502DDA8EB0B0000E0002079
:101590008046002406E009A85246005D0D99904758
:1015A000641C761C08988442F5DB04E03020524627
:1015B0000D999047761CB8F10001A8F10108F5DCFF
:1015C00005E019F8010B52460D999047761CBBF1C6
:1015D0000001ABF1010BF4DC6D1C34E709280100BC
:1015E00070B5074D0446C1B22846FFF765FE80215D
:1015F0002846FFF7C9FD0028F9D0204670BD00003D
:1016000000100140FEF760FE0648416B096829B1F1
:10161000416BC968C9684968816270474FF0FF3102
:10162000FAE70000C0000020D0E9013201699A60A9
:10163000D0E901235A604A68824201D182684A6037
:10164000002202610868401E0860704742684A60D4
:1016500093688B6093685960916008610168491CC8
:101660000160704710B5FEF7F1FD104C10280CD347
:1016700000F1E02090F8F0032178884205D24FF481
:1016800040720BA115A0FFF7AFFE18480068A168D3
:1016900000F4E060884207D9BDE810404FF444727E
:1016A00003A10EA0FFF7A0BE10BD0000FC000020AB
:1016B0002E2E5C2E2E5C4672656552544F535C7024
:1016C0006F72745C525644535C41524D5F434D34CB
:1016D000465C706F72742E63000000004572726F7A
:1016E000723A25732C25640D0A0000000CED00E011
:1016F00070B5134D286B10B10120E86170BD00205A
:10170000E86128690F4EB0FA80F0C0F11F0000EBCD
:10171000800456F8240028B940F6F6220AA111A048
:10172000FFF762FE06EB840000F108024168496899
:101730004160914201D149684160C868286070BD2C
:10174000C0000020F40400202E2E5C2E2E5C467279
:10175000656552544F535C7372635C7461736B7351
:101760002E6300004572726F723A25732C25640D4A
:101770000A00000010B5502080F31188BFF34F8F8E
:10178000BFF36F8F00F078F818B104494FF0805024
:101790000860002080F3118810BD000004ED00E017
:1017A00070B50E46040005D140F23C4220A127A0AE
:1017B000FFF71AFE206C28B14FF488621CA123A009
:1017C000FFF712FE206838B9606828B140F2454240
:1017D00017A11EA0FFF708FEFFF744FF5020EFF30C
:1017E000118580F31188BFF34F8FBFF36F8FA16B0B
:1017F000E06B884218D994F94500491CA163411C4B
:1018000004D0401C84F8450001200EE0606A0028E6
:10181000FAD004F1240000F0A7F80028F4D0002E3C
:10182000F2D001203060EFE7002085F3118870BD11
:101830002E2E5C2E2E5C4672656552544F535C739F
:1018400072635C71756575652E6300004572726F19
:10185000723A25732C25640D0A0000000548416981
:1018600019B1006B18B100207047012070470220A9
:1018700070470000C00000202DE9F0412D4F0026E8
:10188000386B40B1B869401CB861F86900B10126F5
:101890003046BDE8F081FD686D1CFD6011D1786BAC
:1018A000006828B140F6D91223A12AA0FFF79CFDB9
:1018B000786BB96B7963B863386A401C3862FFF79C
:1018C000A3FEB86ADFF89C80854209D3786B006874
:1018D00080B1786BC068C468606885420DD2B86218
:1018E0003868C06A00EB800158F821000128CCD983
:1018F0000126CAE74FF0FF30F1E7201DFFF794FE05
:10190000A06A18B104F11800FFF78EFEE06A012109
:101910003A6981401143396100EB800108EB810095
:10192000211DFFF793FEE06A3968C96A8842CDD36A
:101930000126CBE7C00000202E2E5C2E2E5C4672C6
:10194000656552544F535C7372635C7461736B735F
:101950002E6300004572726F723A25732C25640D58
:101960000A000000F40400202DE9F041C068C468BA
:101970002CB940F6613216A11CA0FFF735FD04F129
:1019800018000746FFF750FE1C4D286B012660B17A
:1019900039461B48FFF75AFEE06A2968C96A88423F
:1019A00013D90120EE61BDE8F081201DFFF73CFE58
:1019B000E06A2A6906FA00F111432961114900EB36
:1019C000800001EB8000211DE4E70020EBE7000030
:1019D0002E2E5C2E2E5C4672656552544F535C73FE
:1019E00072635C7461736B732E6300004572726F77
:1019F000723A25732C25640D0A000000C0000020F7
:101A00009C070020F4040020281A00080000002091
:101A10000C01000008140008341B00080C01002011
:101A2000CC0A0000181400080000000001020304A2
:101A3000010203040607080900000000000000007E
:101A40000000000000000000000000000000000096
:101A50000000000000000000000000000000000086
:101A6000000000000000000000000000AA180101B2
:101A7000C4AA180102C5AA19020005CAAA080B02C5
:101A80002F30303030312A4D5033D9AA080B022F75
:101A900030303030322A4D5033DAAA080B022F3062
:101AA000303030332A4D5033DBAA080B022F303050
:101AB0003030342A4D5033DCAA080B022F3030303E
:101AC00030352A4D5033DDAA080B022F303030302C
:101AD000362A4D5033DEAA080B022F303030303713
:101AE0002A4D5033DF00000000000000000000001D
:101AF00000000000000000000000000000000000E6
:101B000000000000000000000000000000000000D5
:101B100000000000000000000000000000000000C5
:101B20000000000000000000AAAAAAAA000000000D
:041B300000000000B1
:040000050800018965
:00000001FF
