:020000040800F2
:10000000089C002055020008131200082F0F00085A
:1000100011120008C90B00088D190008000000002B
:100020000000000000000000000000009D0100082A
:10003000B50D000800000000F101000819140008C7
:100040006F0200086F0200086F0200086F020008CC
:100050006F0200086F0200086F0200086F020008BC
:100060006F0200086F0200086F0200086F020008AC
:100070006F0200086F0200086F0200086F0200089C
:100080006F0200086F0200086F0200086F0200088C
:100090006F0200086F0200086F0200086F0200087C
:1000A0006F0200086F0200086F0200086F0200086C
:1000B0006F0200086F0200086F0200086F0200085C
:1000C0006F0200086F0200086F0200086F0200084C
:1000D0006F020008D11600086F0200086F020008C6
:1000E0006F0200086F0200086F0200086F0200082C
:1000F0006F0200086F0200086F0200086F0200081C
:100100006F0200086F0200086F0200086F0200080B
:100110006F0200086F0200086F0200086F020008FB
:100120006F0200086F0200086F0200086F020008EB
:100130006F0200086F0200086F0200086F020008DB
:100140006F0200086F0200086F0200086F020008CB
:100150006F0200086F0200086F0200086F020008BB
:100160006F0200086F0200086F0200086F020008AB
:100170006F0200086F0200086F0200086F0200089B
:100180006F0200086F020008DFF80CD000F0AEF834
:1001900000480047FD1B0008089C00202A4B1968F6
:1001A0000868B0E8F04F80F30988BFF36F8F4FF015
:1001B000000080F3118870470000000006480068C6
:1001C000006880F3088862B661B6BFF34F8FBFF353
:1001D0006F8F00DF00BF00BF08ED00E0DFF80C000C
:1001E000016841F470010160704700BF88ED00E0D4
:1001F000EFF30980BFF36F8F134B1A681EF0100FD7
:1002000008BF20ED108A20E9F04F106008B44FF0CD
:10021000500080F31188BFF34F8FBFF36F8F02F050
:100220000FFB4FF0000080F3118808BC19680868C4
:10023000B0E8F04F1EF0100F08BFB0EC108A80F34A
:100240000988BFF36F8F7047D4000020EFF305805B
:10025000704700000648804706480047FEE7FEE773
:10026000FEE7FEE7FEE7FEE7FEE7FEE7FEE7FEE766
:100270002D1400088901000840EA01039B0703D000
:1002800009E008C9121F08C0042AFAD203E011F8D5
:10029000013B00F8013B521EF9D27047D2B201E097
:1002A00000F8012B491EFBD270470022F6E710B57B
:1002B00013460A4604461946FFF7F0FF204610BDD4
:1002C00030B50B46014600202022012409E021FA26
:1002D00002F59D4205D303FA02F5491B04FA02F523
:1002E0002844151EA2F10102F1DC30BD064C074D79
:1002F00006E0E06840F0010394E8070098471034F6
:10030000AC42F6D3FFF744FF24330008443300081F
:1003100070B58C1810F8015B15F0070301D110F8C7
:10032000013B2A1106D110F8012B03E010F8016BF4
:1003300001F8016B5B1EF9D12B0705D40023521E77
:100340000DD401F8013BFAE710F8013BCB1A921CDF
:1003500003E013F8015B01F8015B521EF9D5A142DD
:10036000D8D3002070BD00007CB501F0C3FF03228C
:100370000021012002F046FB554C206210B155A02F
:1003800001F02EFB03220021012002F03BFB606202
:1003900010B15AA001F024FB03220021012002F039
:1003A00031FBA06210B161A001F01AFB0322002111
:1003B000012002F027FBE06210B168A001F010FB01
:1003C00003220021012002F01DFB206310B16FA069
:1003D00001F006FB00231A461946606A02F068FC29
:1003E0003B490220091D0502CDE9000100232A46F0
:1003F00072A1754802F0C0FD012802D173A001F07E
:10040000EFFA334903200C31CDE9000100232A46DD
:1004100075A1784802F0B0FD012802D176A001F064
:10042000DFFA2B4904200831CDE9000100232A46D8
:1004300078A17B4802F0A0FD012802D179A001F04B
:10044000CFFA234905201031CDE9000100232A46C7
:100450007AA17D4802F090FD012802D17BA001F035
:10046000BFFA1B4906201431CDE9000100232A46BA
:100470007DA1804802F080FD012802D17EA001F01C
:10048000AFFA134907201831CDE9000100232A46AD
:1004900080A1834802F070FD012802D181A001F003
:1004A0009FFA0B4908201C31CDE9000100232A46A0
:1004B00083A1864802F060FD012802D184A001F0EA
:1004C0008FFA206802F062F8BDE87C4001F04EBF70
:1004D0002400002042696E61727953656D5F486146
:1004E0006E646C65B6FED6B5D0C5BAC5C1BFB4B42E
:1004F000BDA8B3C9B9A6210D0A000000426F6F6BF9
:100500005F315F42696E61727953656D5F48616EFC
:10051000646C65B6FED6B5D0C5BAC5C1BFB4B4BDAE
:10052000A8B3C9B9A6210D0A00000000426F6F6B85
:100530005F325F42696E61727953656D5F48616ECB
:10054000646C65B6FED6B5D0C5BAC5C1BFB4B4BD7E
:10055000A8B3C9B9A6210D0A00000000426F6F6B55
:100560005F335F42696E61727953656D5F48616E9A
:10057000646C65B6FED6B5D0C5BAC5C1BFB4B4BD4E
:10058000A8B3C9B9A6210D0A00000000426F6F6B25
:100590005F345F42696E61727953656D5F48616E69
:1005A000646C65B6FED6B5D0C5BAC5C1BFB4B4BD1E
:1005B000A8B3C9B9A6210D0A000000004C45445F4C
:1005C0005461736B000000009D100008B4B4BDA816
:1005D000546573745F5461736BC8CECEF1B3C9B9FF
:1005E000A6210D0A00000000556172745F5461730A
:1005F0006B00000039190008B4B4BDA855617274CD
:100600005F5461736BC8CECEF1B3C9B9A6210D0A90
:10061000000000004B45595F5461736B00000000FF
:10062000BB0F0008B4B4BDA84B45595F5461736B50
:10063000C8CECEF1B3C9B9A6210D0A00426F6F6BC7
:100640005F315F5461736B0079070008B4B4BDA8D3
:10065000426F6F6B5F315F5461736BC8CECEF1B385
:10066000C9B9A6210D0A0000426F6F6B5F325F545B
:1006700061736B00B9080008B4B4BDA8426F6F6B1A
:100680005F325F5461736BC8CECEF1B3C9B9A62196
:100690000D0A0000426F6F6B5F335F5461736B0034
:1006A000150A0008B4B4BDA8426F6F6B5F335F5486
:1006B00061736BC8CECEF1B3C9B9A6210D0A000093
:1006C000426F6F6B5F345F5461736B00D10A000837
:1006D000B4B4BDA8426F6F6B5F345F5461736BC875
:1006E000CECEF1B3C9B9A6210D0A000010B54FF462
:1006F0007A744FF4407000F0BFFD00F063FC00F02E
:100700003BFD641EA4B2FCD2002000F0D7FC01F037
:10071000A9F800F051FB00F00BFC8023104A532194
:1007200040F2F31000F0B0FE0E4C4FF48071204602
:1007300000F0F9FB6115204600F0F5FB211520467D
:1007400000F0F1FBE114204600F0EDFBA11420467F
:1007500000F0E9FBBDE8104003A001F041B9000042
:100760000000024000080240496E69742066696E0C
:100770006973680D0A0000004C4FDFF834B14D4E2C
:1007800001244FF4806900235A1E1946706A02F052
:1007900071F980464FF480752946384600F0C5FB54
:1007A0006900384600F0C1FB4946384600F0BDFB01
:1007B000E900384600F0B9FB2901384600F0B5FBE6
:1007C000B8F1010FDFD1A8462946384600F0ABFB4F
:1007D0004FF4FA6A5D4624E00221284600F0E6FB69
:1007E00028B10421284600F0E1FBD0B908E00A2036
:1007F00001F092FE0221284600F0D8FB88B912E0F1
:100800000A2001F089FE0421284600F0CFFB40B900
:10081000012000F053FC504601F07EFE002000F065
:100820004DFC002CD8D101244146384600F07DFB18
:100830004946384600F077FB022000F03FFC41F2C9
:10084000941001F069FE002000F038FC04212846D5
:1008500000F0ACFB00284FF00A001ED001F05CFE57
:10086000002CF3D10124052000F028FC40F6AC5008
:1008700001F052FE002000F021FC00231A46194628
:10088000B06A02F015FA00231A461946706A02F09F
:100890000FFA642001F040FE75E701F03DFE0421EF
:1008A000284600F083FB0028DCD0D9E7000802408E
:1008B000000C024024000020DFF84CA1534EDFF86A
:1008C00050B1012440F6B8394FF4007800235D1E82
:1008D0002A461946B06A02F0CDF8074600232A4698
:1008E0001946706A02F0C6F838400128EED1554624
:1008F00094B10821284600F059FB00284FF00A0067
:1009000002D001F009FEF3E701F006FE08212846B7
:1009100000F04CFB0028EBD10124032000F0CEFBBB
:10092000484601F0F9FD002000F0C8FB41465F4653
:10093000584600F0F8FA1021284600F037FB00284E
:100940004FF00A0045D001F0E7FD002CF3D101245F
:100950002021284600F02AFB00284FF00A0041D051
:1009600001F0DAFD002CF3D101244021284600F0EB
:100970001DFB00284FF00A003DD001F0CDFD002CFA
:10098000F3D101244146384600F0CFFAE10238465F
:1009900000F0C9FA032000F091FB484601F0BCFDCD
:1009A000002000F08BFB00231A461946F06A02F083
:1009B0007FF900231A461946B06A02F079F900233C
:1009C0001A461946706A02F073F9642001F0A4FD1A
:1009D0007CE701F0A1FD1021284600F0E7FA00288D
:1009E000B5D0B2E701F098FD2021284600F0DEFAEC
:1009F0000028B9D0B6E701F08FFD4021284600F06D
:100A0000D5FA0028BDD0BAE7000C0240240000202F
:100A1000000802400124DFF8B0902C4DA71E0023EF
:100A20003A461946E86A02F025F8804600233A461D
:100A30001946A86A02F01EF800EA080600233A46A2
:100A40001946686A02F016F830400128E7D14E4690
:100A500094B18021304600F0A9FA00284FF00A0036
:100A600002D001F059FDF3E701F056FD8021304638
:100A700000F09CFA0028EBD10124062000F01EFBB8
:100A800041F2707001F048FD002000F017FB0023D8
:100A90001A461946286B02F00BF900231A4619462C
:100AA000E86A02F005F900231A461946A86A02F01E
:100AB000FFF800231A461946686A02F0F9F8642024
:100AC00001F02AFDABE70000000C024024000020EA
:100AD000DFF8E8903A4D01244FF0FF3B4FF4807A65
:100AE00000235F465A461946286B01F0C3FF0023D6
:100AF0003A461946E86A01F0BDFF804600233A46AF
:100B00001946A86A01F0B6FF00EA080600233A4633
:100B10001946686A01F0AEFF30400128E0D14E4628
:100B200094B18021304600F041FA00284FF00A00CD
:100B300002D001F0F1FCF3E701F0EEFC8021304639
:100B400000F034FA0028EBD10124042000F0B6FABA
:100B500041F2707001F0E0FC002000F0AFFA57465F
:100B60003946304600F022FA00284FF00A001CD027
:100B700001F0D2FC002CF3D101242103114800F034
:100B8000D2F9032000F09AFA40F6B83001F0C4FC24
:100B9000002000F093FA00231A461946686A02F012
:100BA00087F8642001F0B8FC9AE701F0B5FC3946FB
:100BB000304600F0FBF90028DED0DBE700040240FD
:100BC0002400002000080240FEE70000074A90428F
:100BD00001D2074801E005481038064A8B0001EAB7
:100BE000020101D5C1607047816070471064024006
:100BF000006002407D0F7D0F0029016802D041F0A6
:100C0000010101E021F00101016070472DE9F0438D
:100C1000016821F0010101600021016041608160F3
:100C2000C1600161212141613C493C4A3D251039A7
:100C3000904202D18D60BDE8F083384A4FF474666B
:100C40001832904201D18E60F5E7344A4FF47417A0
:100C50003032904201D18F60EDE7304A4FF0746C32
:100C60004832904202D1C1F808C0E4E72B4B2C4A2D
:100C70006033984201D1CA60DDE7284C294B7834B3
:100C8000A04201D1CB60D6E7DFF89080264C08F176
:100C90009008404501D1CC60CDE7DFF880804FF06F
:100CA0003D5908F1A808404502D1C1F80C90C2E7AF
:100CB0001E49DFF878800839404501D10D60BAE758
:100CC0001A4D1835A84201D10E60B4E7174D3035E2
:100CD000A84201D10F60AEE7144D4835A84202D1B9
:100CE000C1F800C0A7E7114D10496035091FA8429F
:100CF00001D10A609FE70D4A7832904201D10B6022
:100D000099E70A4A9032904201D10C6093E7074A72
:100D1000A83290428FD1C1F800908CE71060024059
:100D20003D000020400F002000003D2010640240E4
:100D30000B0607D5436912B143F0800301E023F0AD
:100D400080034361802908D0002A026801F01E0157
:100D500001D00A4300E08A430260704730B503685F
:100D6000124ACC6813400A682243D1E905452C4356
:100D70002243CC6922430C6A22434C6A22438C6A88
:100D800022434C6B22438C6B22431A43026042691C
:100D900022F00703D1E90B2422431A4342610A6976
:100DA00042604A6882608968C16030BD3F801CF043
:100DB0004160704770470000F0B5012187B00846D8
:100DC00000F064FA0121102000F078FA02250024D6
:100DD0008DF8064001268DF807602802264F8DF811
:100DE000055000908DF804506946384600F048F8E8
:100DF000680200908DF804506946384600F040F8CB
:100E000007220A21384600F077F8072209213846E0
:100E100000F072F84FF4E1300290ADF810400C2071
:100E2000164DADF80C40ADF81200ADF80E40ADF81F
:100E3000144002A9284600F0B7FC25208DF81800C0
:100E400007208DF819008DF81A408DF81B6006A850
:100E500000F0E0F9012240F22441284600F08CFC29
:100E600001224021284600F059FC0121284600F0CB
:100E70004BFC07B0F0BD0000000002400010014034
:100E8000F0B5002201274FF0030C0B6807FA02F5BA
:100E90002B40AB422CD1066853000CFA03F4A64356
:100EA00006600E79D0F800E09E4046EA0E06066025
:100EB0000E79012E01D0022E12D18668A6438660DB
:100EC0004E79D0F808E09E4046EA0E0686604668F5
:100ED000AE43466045688E799640B6B2354345606C
:100EE000C568A543C560CC799C40C3681C43C460F9
:100EF000521C102AC9D3F0BD4B07DB0E9A40C9081B
:100F000010B500EB8100016A0F249C40A1430162EF
:100F1000016A1143016210BD0246002012690A42B3
:100F200000D0012070474183704701837047FEE77E
:100F30001CB501210A2000F0A9F940F2FE30009012
:100F400000208DF804000220164C8DF80700694639
:100F50002046FFF795FF69462046FFF791FF694657
:100F60002046FFF78DFF69462046FFF789FF694657
:100F70002046FFF785FF69462046FFF781FF694657
:100F80002046FFF77DFF084C69462046FFF778FFB3
:100F900069462046FFF774FF69462046FFF770FF59
:100FA0001CBD0000000C02400004024010B5FFF719
:100FB000B3FF012800D0002010BD642001F0ACFA7E
:100FC000FBE700002DE9FC5F0121042000F05EF941
:100FD00001248DF8044000208DF806008DF80740AC
:100FE00004258DF80500009569462B48FFF748FF5A
:100FF0000826694628480096FFF742FF02276946FF
:1010000025480097FFF73CFF694623480094FFF707
:1010100037FF4FF4807869461F48CDF80080FFF70E
:101020002FFF4FF4007969461B48CDF80090FFF779
:1010300027FF4FF4806A69461748CDF800A0FFF7F4
:101040001FFF4FF4006B69461348CDF800B0FFF75F
:1010500017FF2003009069460F48FFF711FF0E4865
:101060001830058006800780048041460A48FFF753
:101070005CFF49460848FFF758FF51460648FFF70E
:1010800054FF59460448FFF750FF21030248FFF779
:101090004CFFBDE8FC9F000000080240064E0424FF
:1010A0004FF4FA75B71E3480284601F035FA3C80BB
:1010B000284601F031FAF6E71A08024010B52C4C28
:1010C000072805D2DFE800F004131D27313B450057
:1010D00005222849204600F06EFC264906220A31E6
:1010E000204600F068FC23490F2210313AE02149E4
:1010F0000522491D204600F05EFC1E490F221F31CB
:1011000030E01C490522491D204600F054FC1949D5
:101110000F222E3126E017490522491D204600F0F6
:101120004AFC14490F223D311CE012490522491D99
:10113000204600F040FC0F490F224C3112E00D49CF
:101140000522491D204600F036FC0A490F225B317A
:1011500008E008490522491D204600F02CFC0549FD
:101160000F226A312046BDE8104000F024BC000088
:10117000001401405800002070B586B00121042001
:1011800000F084F80121202000F098F800248DF868
:10119000064001208DF80700022540201A4E8DF8E8
:1011A000055000908DF8045069463046FFF768FE00
:1011B000802000908DF8045069463046FFF760FEAD
:1011C000082207213046FFF797FE08220621304605
:1011D000FFF792FE4FF41650ADF80C400290ADF8B8
:1011E0000E40ADF81040ADF814400C20074CADF89F
:1011F000120002A9204600F0D7FA0121204600F093
:1012000083FA06B070BD00000008024000140140DF
:10121000FEE7704730B50F23C27801780125FAB197
:10122000144A126801F1E02102F4E062C2F5E062C2
:10123000C2F30722C2F10404D3404278A24084786A
:101240001C401443220181F80024007800F01F01A3
:101250008D404009800000F1E020C0F8005130BD11
:1012600001F01F0085404809800000F1E020C0F82F
:10127000805130BD0CED00E002490843024908608E
:10128000704700000000FA050CED00E0044A002958
:10129000116801D0014300E08143116070470000F4
:1012A00030380240044A0029116801D0014300E0AF
:1012B000814311607047000040380240044A002911
:1012C000116801D0014300E08143116070470000C4
:1012D0004438024070B5204B1968204C11F00C01C5
:1012E00004D06610042903D0082903D004601BE051
:1012F000066019E0184A121F1168C1F38055116881
:1013000001F03F0115B1B6FBF1F101E0B4FBF1F1E1
:1013100014681268C4F388146143C2F30142521C7A
:101320005200B1FBF2F1016019680F2202EA1111BB
:101330000B4A545C0168E14041601C68072505EADE
:101340009424145D21FA04F484601B6805EA533385
:10135000D25CD140C16070BD083802400024F40066
:10136000140000200CB50022274900920192086861
:1013700040F4803008604FF4A043086800F4003067
:1013800001900098401C0090019810B90098984274
:10139000F3D10868800334D5012001901A48403009
:1013A000026842F0805202601848026842F44042EB
:1013B00002601548083002680260026842F4004288
:1013C0000260026842F4A0520260031F104A1A60D1
:1013D0000A6842F080720A600A689201FCD50D49E1
:1013E00040F205720A60016821F0030101600168A2
:1013F00041F0020101600168C1F381010229FAD1C3
:101400000CBD01920CBD000000380240007000408D
:1014100008544007003C024010B501F0D9FD0128F6
:1014200003D0BDE8104001F0D7BA10BD124810B586
:10143000016841F4700101601048016841F0010148
:1014400001600E4A00210832116002680C4B1A40FC
:101450000260031D0B4A1A60026822F480220260B7
:1014600006480C300160FFF77DFF03494FF0006034
:101470008039086010BD000088ED00E000380240AF
:10148000FFFFF6FE103000242DE9F0430E46012147
:1014900080460F028BB01C4691463846FFF702FF8C
:1014A000BC423BD012DC102C30D008DC012C25D003
:1014B000022C25D0042C25D0082C3ED124E0202C51
:1014C00026D0402C26D0802C37D125E0B4F5805F83
:1014D0002CD009DCB4F5007F22D0B4F5806F21D088
:1014E000B4F5006F29D11FE0B4F5005F20D0B4F54A
:1014F000804F1FD0B4F5004F1FD11DE000251CE028
:1015000001251AE0022518E0032516E0042514E061
:10151000052512E0062510E007250EE008250CE061
:1015200009250AE00A2508E00B2506E00C2504E061
:101530000D2502E00E2500E00F2501210846FFF7EA
:10154000A5FE022000948DF8040000248DF80640CA
:1015500001278DF8077003208DF80500694648467D
:10156000FFF78EFC092229464846FFF7C5FC134DBC
:10157000ADF80860ADF80A40CDF80C80ADF8104029
:1015800002A9284600F066F86020ADF81400ADF816
:101590001670ADF8204005A9284600F025F808216E
:1015A000284600F051F80121284600F009F80121F1
:1015B000284600F00FF80BB0BDE8F0830020004093
:1015C0000029018802D041F0800101E021F0800172
:1015D000018070470029018802D041F0010101E03B
:1015E00021F001010180704730B5028C22F0010228
:1015F0000284028C8388048B22F0020224F073059B
:101600000C882C438D8915434A882A430C4DA842E7
:1016100002D00C4DA8420DD122F00805CA8923F44E
:1016200040732A4322F004058A882A430D8A1D4309
:101630004B8A2B438380048389684163028430BDD5
:101640000000014000040140028B22F008020A431E
:101650000283704730B50288164C174DA0420DD05A
:10166000A8420BD0B0F1804F08D0144B984205D05F
:10167000134B984202D0134B984203D122F07003CF
:101680004A881A43104B984206D0104B984203D018
:1016900022F440730A891A4302804A68C2620A88A7
:1016A0000285A04201D0A84201D1897A0186012198
:1016B000818230BD00000140000401400004004070
:1016C00000080040000C00400010004000140040E2
:1016D00070B55020EFF3118480F31188BFF34F8F62
:1016E000BFF36F8F074D40F22441284600F025F8E4
:1016F00020B100F0F7F8284600F0ACF884F3118828
:1017000070BD0000001001400029818902D041F421
:10171000005101E021F4005181817047002A828A42
:1017200001D00A4300E08A438282704702460020CB
:1017300012880A4200D00120704770B501F01F05E1
:1017400001260024C1F3421306FA05F2012B0FD043
:10175000022B0FD0838A4FEA11210088134206FA28
:1017600001F600EA060001D000B10124204670BD58
:101770008389F0E7038AEEE710B5C1F3421301F065
:101780001F040121A140012B07D0022B07D01430E8
:10179000002A026805D00A4304E00C30F8E7103054
:1017A000F6E78A43026010BD7FB50446008A0D4605
:1017B000C98820F4405001432182A08941F20C6184
:1017C0008843A9882A8911436A8902431143A18168
:1017D000A08A20F44071A8890843A0826846FFF7D8
:1017E00079FD1A48844202D01948844201D10398F5
:1017F00000E00298A189090400EBC00101EB001090
:10180000296801D5490000E08900B0FBF1F06422AD
:10181000B0FBF2F109010B096FF018056B4300EB07
:101820008300A3891D044FF0320306D503EBC000EB
:10183000B0FBF2F000F0070005E003EB0010B0FB96
:10184000F2F000F00F00084320817FBD001001403E
:10185000001401408088C0F308007047C1F30801FC
:101860008180704710B5012190B08805FFF70EFD0B
:10187000194C2046FFF7CAF94FF000600090174856
:10188000019017480021CDE902014FF47A70CDE9AB
:1018900004012015CDE906018010CDE908104FF4B0
:1018A0004030CDE90A010320CDE90C010E916946D3
:1018B0002046FFF753FA4FF081512046FFF786F993
:1018C000012204212046FFF733FA01212046FFF7C9
:1018D00093F910B010BD00004064024004100140B4
:1018E0003801002038B5114C00212046FFF784F95B
:1018F0004FF081512046FFF769F94FF47A71204685
:10190000FFF756FA01212046FFF776F908486946A5
:10191000006801F08BFA0098002806D00549A00560
:101920000860BFF34F8FBFF36F8F38BD4064024034
:101930004400002004ED00E04FF0FF360C4D0D4C4C
:101940004FF47A77002332461946286A01F092F85C
:101950000128F7D1206880F008002060064907A020
:1019600000F03EF839460448FEF79FFCEAE7000025
:10197000240000201408024038010020CAD5B5BD5B
:10198000CAFDBEDD3A25730A00000000FEE770B50F
:101990000D46044640212046FFF7C8FE0128F9D134
:1019A00029462046FFF75AFF80212046FFF7BEFE5A
:1019B0000028F9D070BD70B514460D46064604E007
:1019C00029783046FFF7E3FF6D1C641EE4B2F7D2BE
:1019D00040213046FFF7AAFE0028F9D070BD000074
:1019E0000FB4054B10B503A9044A029800F018F88B
:1019F00010BC5DF814FB0000D91B00083401002066
:101A000002E008C8121F08C1002AFAD170477047C7
:101A1000002001E001C1121F002AFBD17047000025
:101A20002DE9FF4F8BB09A460F460546002606E08B
:101A300025280BD052460D9990476D1C761C2878AE
:101A40000028F5D10FB03046BDE8F08F0024A04645
:101A50000122604900E0044315F8013F203B02FAEF
:101A600003F00842F7D128782E2817D115F8010F76
:101A700044F004042A280ED06FF02F022878A0F139
:101A8000300109290AD808EB880102EB410100EB7B
:101A900001086D1CF2E757F8048B6D1C2878692843
:101AA0003ED006DC0028CDD063280BD0642804D1BA
:101AB00036E0732810D075284BD052460D999047C8
:101AC000761C85E017F8040B8DF8000000208DF8D7
:101AD0000100E946012003E057F8049B4FF0FF3076
:101AE00061074FF0000401D40AE0641C44450DDA9C
:101AF0008442FADB19F804100029F6D106E0641CD0
:101B00008442FCDB19F804100029F8D1264404E0D3
:101B100019F8010B52460D999047641EF8D257E010
:101B200001CF4FF00A0B002802DA40422D2102E0DB
:101B3000210504D52B218DF82410012103E0E107B4
:101B400005D02021F7E70DF1200908910CE00021D4
:101B5000F9E701CF4FF00A0BF9E75946FEF7B0FB62
:101B600001F1300209F8012D0028F6D1ADEB090092
:101B700000F1200B600701D44FF00108D84502DDC9
:101B8000A8EB0B0000E000208046002406E009A836
:101B90005246005D0D999047641C761C089884425B
:101BA000F5DB04E0302052460D999047761CB8F1E1
:101BB0000001A8F10108F5DC05E019F8010B524617
:101BC0000D999047761CBBF10001ABF1010BF4DCE1
:101BD0006D1C34E70928010070B5074D0446C1B2F9
:101BE0002846FFF73BFE80212846FFF79FFD00288F
:101BF000F9D0204670BD0000001001401CB5FEF772
:101C000075FD0AA0FFF7ECFE0B490120CDE90001AC
:101C10004202002309A10D4801F0AEF9012802D0CB
:101C20004FF0FF301CBD00F0B9FDFEE752544F539A
:101C30005F496E69740A0A002400002041707054E4
:101C400061736B437265617465000000690300088D
:101C50002DE9F041184E0F460446F5683068001D26
:101C600000F004FB38B9306890F82C10012088404F
:101C7000316981433161601C07D137B13168BDE8FA
:101C8000F0410E48091D00F029BB30682C44AC42DD
:101C90004460316805D2B06BBDE8F041091D00F029
:101CA00005BB706B091D00F001FBB06A844200D2D5
:101CB000B462BDE8F0810000D4000020F0070020ED
:101CC0002DE9F041054600F015FB2D4EB068401C93
:101CD000B06030682B4F10B1706930B32BE03560C5
:101CE000B068012827D1002404EB840007EB8000B2
:101CF00000F0CEFA641C202CF6D3234800F0C8FA7A
:101D00002148143000F0C4FA1F48283000F0C0FA0F
:101D10001D483C3000F0BCFA1B48503000F0B8FAC7
:101D2000194870631430B06305E03068E96AC06A2E
:101D3000884200D83560706A0121401C7062E86AF0
:101D4000326981401143316100EB800007EB800074
:101D5000291D00F0C3FA00F009FB706900280CD0BF
:101D60003068E96AC06A884207D208494FF080505B
:101D70000860BFF34F8FBFF36F8FBDE8F0810000A5
:101D8000D400002020050020A007002004ED00E082
:101D900070B5124E124D1CE000F04AFD306820B1C3
:101DA000002401F049FAA4B901E00124F9E700F0A8
:101DB000A1FAF068C468201D00F058FAA868401E17
:101DC000A8606868401E686000F0D0FA204600F005
:101DD00052F868680028DFD170BD0000DC070020E1
:101DE000D400002030B4026C0B46002A0BD0C1682E
:101DF0001144C1604468A14201D30168C16030BC94
:101E00001846FEF739BA30BC70472DE9F041856BB2
:101E1000174604460026026C82B1C7B1E068FEF79F
:101E20002BFAE168206C091AE1602268914202D223
:101E30006168081AE060022F16D017E02068A8B980
:101E4000606801F04BF90646002060600EE0A06873
:101E5000FEF712FA216CA0680844A060616888420D
:101E600004D32068A06001E005B16D1E6D1CA56360
:101E70003046BDE8F08110B50446006B00F0A8FACA
:101E80002046BDE8104000F0A3BA000010484FF40F
:101E90001041420706D0C01D0D4920F00700411A2D
:101EA000C1F510410B4A00230144C2E9000308397F
:101EB000103A21F0070111604B600B600B1AC0E96A
:101EC000001393604FF000405360D06070470000F3
:101ED0000408002020010020074E4FF08054074DD9
:101EE000FFF756FF30680128FAD92C60BFF34F8FF7
:101EF000BFF36F8FF4E700002005002004ED00E041
:101F00002DE9F047DDE909840E4682466FF00301B2
:101F1000206B01EB82010844089D20F007079946D9
:101F2000780705D040F22B3219A120A0FFF758FD09
:101F300000202218315C82F83410315C11B1401C51
:101F40001028F6D3002684F84360202D00D31F25E7
:101F5000E562C4E91156201D00F0A5F904F118004E
:101F600000F0A1F92461C5F120006462A061E6647B
:101F700084F850604A465146384600F061F92060C6
:101F8000B8F1000F01D0C8F80040BDE8F0870000AC
:101F90002E2E5C2E2E5C4672656552544F535C7338
:101FA00072635C7461736B732E6300004572726FB1
:101FB000723A25732C25640D0A00000030B51149D2
:101FC00000E011460A688242FBD34B685C188442E9
:101FD00003D1406818444860084643681C1894427E
:101FE00009D1084C103C2468A24209D052681A4416
:101FF00042600A6812680260814200D0086030BD09
:102000000460F9E72001002010B5044600F072F9E1
:10201000A06B20B1002400F0A9F9204610BD0124D6
:10202000F9E700000648416B096829B1416BC968AE
:10203000C9684968816270474FF0FF31FAE70000D4
:10204000D400002008484068401C05D040F20F1220
:1020500006A111A0FFF7C4FC502080F31188BFF344
:102060004F8FBFF36F8FFEE7280100202E2E5C2ECE
:102070002E5C4672656552544F535C706F72745C8F
:10208000525644535C41524D5F434D34465C706F31
:1020900072742E63000000004572726F723A2573ED
:1020A0002C25640D0A0000002DE9F041044600F0E3
:1020B00021F994F9455004F1240609E0606A48B119
:1020C000304601F069F808B100F0CAFA6D1E6DB231
:1020D000002DF3DC4FF0FF3684F8456000F046F940
:1020E00000F008F994F9445004F1100709E0206960
:1020F00048B1384601F050F808B100F0B1FA6D1E51
:102100006DB2002DF3DC84F84460BDE8F04100F0CE
:102110002DB900002DE9F0410546002600F088FBAE
:10212000324F386808B9FFF7B1FEF86805424FD161
:10213000002D4DD0083568070BD005F00700C0F121
:1021400008000544680704D0BF2229A132A0FFF788
:1021500047FC002D3CD07868854239D8234910319E
:102160000846046801E0214604466068A84202D29D
:1021700020680028F7D13868B846844228D00E6815
:102180002068086060680836401B10280ED967195F
:10219000780704D0EC2216A11FA0FFF721FC60688D
:1021A000401B786038466560FFF708FF6168D8F823
:1021B00004004246401AC8F80400D8F80830984293
:1021C00000D29060D8F80C0001430020C4E900015F
:1021D00001F032F8700705D04FF4967204A10EA0FA
:1021E000FFF7FEFB3046BDE8F08100001001002043
:1021F0002E2E5C2E2E5C4672656552544F535C70D9
:102200006F72745C4D656D4D616E675C6865617081
:102210005F342E63000000004572726F723A2573BE
:102220002C25640D0A0000000449086818B10868EC
:10223000826C521C8264086870470000D400002041
:1022400010B5031F4FF080741C601B1F21F00101AB
:102250001960191F044B0B6014390A60091F6FF0D5
:10226000020244380A6010BD45200008D0E901325E
:1022700001699A60D0E901235A604A68824201D11B
:1022800082684A60002202610868401E0860704748
:1022900000F108014FF0FF32C0E90112C160016195
:1022A00000210160704700210161704730B50C6862
:1022B000621C02D000F1080202E0026904E01A4642
:1022C00053681D68A542FAD953684B6099608A60CB
:1022D000516008610168491C016030BD42684A6074
:1022E00093688B6093685960916008610168491C2C
:1022F00001607047502080F31188BFF34F8FBFF308
:102300006F8F09494868401C486001280AD1074876
:10231000006810F0FF0F05D040F2B91204A10FA021
:10232000FFF75EBB704700002801002004ED00E0CD
:102330002E2E5C2E2E5C4672656552544F535C7097
:102340006F72745C525644535C41524D5F434D343E
:10235000465C706F72742E63000000004572726FED
:10236000723A25732C25640D0A00000010B5084C44
:10237000606828B94FF4E07206A111A0FFF730FBA6
:102380006068401E606001D180F3118810BD0000BC
:10239000280100202E2E5C2E2E5C4672656552545C
:1023A0004F535C706F72745C525644535C41524D93
:1023B0005F434D34465C706F72742E630000000002
:1023C0004572726F723A25732C25640D0A00000065
:1023D00070B500282AD0164DA0F108046068E9689D
:1023E000084205D14FF4A07212A11CA0FFF7F8FA21
:1023F000206828B140F241120EA118A0FFF7F0FAB0
:102400006068E968084211D02268002A0ED188432A
:10241000606000F00DFA60686968084468602046F2
:10242000FFF7CCFDBDE8704000F006BF70BD0000B6
:10243000100100202E2E5C2E2E5C467265655254D3
:102440004F535C706F72745C4D656D4D616E675C6F
:10245000686561705F342E63000000004572726F22
:10246000723A25732C25640D0A00000006484FF4CB
:102470007A710068B0FBF1F14FF0E020491E416134
:1024800007210161704700000000002010B5FDF732
:10249000DDFE104C10280CD300F1E02090F8F00382
:1024A0002178884205D24FF440720BA115A0FFF7A6
:1024B00097FA18480068A16800F4E060884207D9DC
:1024C000BDE810404FF4447203A10EA0FFF788BA94
:1024D00010BD0000280100202E2E5C2E2E5C4672BE
:1024E000656552544F535C706F72745C525644531E
:1024F0005C41524D5F434D34465C706F72742E6385
:10250000000000004572726F723A25732C25640D2D
:102510000A0000000CED00E010B5040012D00E49D6
:10252000096B29B140F2CF420CA113A0FFF758FA72
:1025300000F07EF900212046FFF78AFB00F07CFEC8
:10254000002807D110494FF080500860BFF34F8F2B
:10255000BFF36F8F10BD0000D40000202E2E5C2E24
:102560002E5C4672656552544F535C7372635C74A3
:1025700061736B732E6300004572726F723A25733C
:102580002C25640D0A00000004ED00E070B504463F
:10259000FFF7B0FE234D04B92C68201DFFF766FE3F
:1025A00058B9E06A204A00EB800152F8211021B9A5
:1025B00001218140286988432861A06A18B104F18B
:1025C0001800FFF753FE686A401C6862286884425E
:1025D00007D1211D1548FFF781FE6868401C68601F
:1025E00007E0A868401EA8602046FFF744FCFFF7FC
:1025F00019FDFFF7BBFE6869002812D028688442E5
:102600000FD1286B28B140F2654209A10FA0FFF756
:10261000E7F912494FF080500860BFF34F8FBFF3C6
:102620006F8F70BDD400002020050020DC07002043
:102630002E2E5C2E2E5C4672656552544F535C7391
:1026400072635C7461736B732E6300004572726F0A
:10265000723A25732C25640D0A00000004ED00E099
:1026600001490120C8617047D400002070B50D46B3
:10267000040005D140F6063207A10EA0FFF7B0F91D
:102680001048016820461831FFF710FE2846BDE8C3
:1026900070400121FFF7DCBA2E2E5C2E2E5C4672B4
:1026A000656552544F535C7372635C7461736B73F2
:1026B0002E6300004572726F723A25732C25640DEB
:1026C0000A000000D400002070B5040039D01D4D70
:1026D000E06A2968C96A884233D2A069002804DB0D
:1026E0002868C06AC0F12000A061E06A164E00EBC5
:1026F0008000616906EB800081421FD1201DFFF739
:10270000B5FD012150B9E06A00EB800256F82220A5
:1027100022B92A6901FA00F082432A612868C06A56
:10272000E0622A6981401143296100EB800006EBD9
:102730008000211DBDE87040FFF7D0BD2868C06A49
:10274000E06270BDD40000202005002010B5040018
:1027500005D140F6C13205A10BA0FFF741F90E48A3
:10276000016A2160C068606010BD00002E2E5C2EE2
:102770002E5C4672656552544F535C7372635C7491
:1027800061736B732E6300004572726F723A25732A
:102790002C25640D0A000000D40000201CB515484B
:1027A0000024CDE900402346802213A1144800F004
:1027B000E3FB01280AD0401C1BD102B040F2847216
:1027C000BDE810400FA116A0FFF70AB9502080F312
:1027D0001188BFF34F8FBFF36F8F06484FF0FF3163
:1027E0002C38816201214161C460BDE81C4000F0C9
:1027F00069B81CBD0001002049444C4500000000A0
:10280000D91E00082E2E5C2E2E5C46726565525431
:102810004F535C7372635C7461736B732E6300005F
:102820004572726F723A25732C25640D0A00000000
:102830000248016B491C016370470000D40000206E
:1028400070B5134D286B10B10120E86170BD0020F8
:10285000E86128690F4EB0FA80F0C0F11F0000EB6C
:10286000800456F8240028B940F6F6220AA111A0E7
:10287000FFF7B6F806EB840000F1080241684968EA
:102880004160914201D149684160C868286070BDCB
:10289000D4000020200500202E2E5C2E2E5C4672D7
:1028A000656552544F535C7372635C7461736B73F0
:1028B0002E6300004572726F723A25732C25640DE9
:1028C0000A0000001CB5304C20683049884205D110
:1028D00040F259122EA139A0FFF782F820682B4947
:1028E000491E884205D14FF4AD7229A133A0FFF7EC
:1028F00077F8364C20780190FF20207020788DF8F2
:1029000000009DF800009DF8001000F0F0008842E3
:1029100005D040F273121EA128A0FFF761F89DF8C0
:1029200000002B4A00F0500010700720906007E074
:102930009068401E90609DF8000040008DF80000F7
:102940009DF800000006F3D4107A000200F4E06065
:102950009060019820700C482030016841F47001AB
:102960000160016841F070410160FFF77FFD0020C8
:102970005060FDF733FC1748016841F040410160A9
:10298000FDF71CFC00201CBD00ED00E071C20F41F2
:102990002E2E5C2E2E5C4672656552544F535C7031
:1029A0006F72745C525644535C41524D5F434D34D8
:1029B000465C706F72742E63000000004572726F87
:1029C000723A25732C25640D0A00000000E400E033
:1029D0002801002034EF00E010B5502080F311886A
:1029E000BFF34F8FBFF36F8F00F000FB18B10449A6
:1029F0004FF080500860002080F3118810BD000067
:102A000004ED00E070B50E46050005D14FF4C47228
:102A10000DA114A0FEF7E4FF96B105FB06F04830C7
:102A2000FFF778FB040009D004F1480120464EB1BD
:102A30000160C0E90F56012100F0E2F8204670BDA8
:102A40000020ECE70060F4E72E2E5C2E2E5C467230
:102A5000656552544F535C7372635C71756575653F
:102A60002E6300004572726F723A25732C25640D37
:102A70000A0000002DE9FF4F83B09B468A46040000
:102A80004FF0000605D140F2DC4251A157A0FEF7FD
:102A9000A7FFBAF1000F07D1206C28B140F2DD4248
:102AA0004BA152A0FEF79CFF00F092FA38B90598AE
:102AB00028B14FF49C6246A14CA0FEF791FF4FF065
:102AC00000094FF08057DFF83481FFF713FCA56B46
:102AD00045B351462046E668FFF784F9BBF1000F85
:102AE00013D0E660606A50B104F1240000F054FB9A
:102AF00028B1C8F80070BFF34F8FBFF36F8FFFF797
:102B000035FC012007B0BDE8F08F6D1EA56320687D
:102B100010B9FFF789FB606020690028EFD004F14D
:102B20001000E3E7059808B11EB106E0FFF71EFCB0
:102B300027E06846FFF70AFE0126FFF717FCFFF7BC
:102B400077FEFFF7D7FB94F94400401C01D184F8CD
:102B5000449094F94500401C01D184F84590FFF75A
:102B600005FC05A9684600F0BFF9002820460AD0F8
:102B7000FFF79AFA00F060FB2046FFF745FA0028BD
:102B8000A3D00020BEE7FFF73FFAD8B1206830B9E4
:102B9000FFF7B0FB6068FFF797FDFFF7E7FB04F175
:102BA00024000599FFF762FD2046FFF77DFA00F04B
:102BB00043FB002889D1C8F80070BFF34F8FBFF3E3
:102BC0006F8F82E72046FFF76FFA00F035FB7CE756
:102BD0002E2E5C2E2E5C4672656552544F535C73EC
:102BE00072635C71756575652E6300004572726F66
:102BF000723A25732C25640D0A00000004ED00E0F4
:102C000070B50D46040005D140F21B121CA123A093
:102C1000FEF7E6FEFFF76EFBD4E90F20216802FB0A
:102C2000001161600021A1632168A1600A46D4E916
:102C30000F01401E00FB0121E16021464FF0FF30F3
:102C400001F8440F487004F110004DB1FFF720FB6C
:102C500004F12400FFF71CFBFFF788FB012070BD87
:102C600021690029F8D000F097FA0028F4D00F4924
:102C70004FF080500860BFF34F8FBFF36F8FEBE7CB
:102C80002E2E5C2E2E5C4672656552544F535C733B
:102C900072635C71756575652E6300004572726FB5
:102CA000723A25732C25640D0A00000004ED00E043
:102CB0002DE9FF4F83B01F468B4604004FF00006FE
:102CC00005D140F2D9224DA153A0FEF789FEBBF1F8
:102CD000000F07D1206C28B140F2DA2247A14EA0A4
:102CE000FEF77EFE022F08D1E06B012805D040F2EE
:102CF000DB2242A148A0FEF773FE00F069F938B963
:102D0000059828B140F2DE223CA143A0FEF768FE00
:102D10004FF0000A4FF08058DFF80C91FFF7EAFA05
:102D2000A06BE16B884205D3022F03D00598C8B190
:102D3000DEB11EE03A4659462046FFF766F8616A62
:102D400019B104F1240000F027FA28B1C9F8008075
:102D5000BFF34F8FBFF36F8FFFF708FB012007B062
:102D6000BDE8F08FFFF702FB21E06846FFF7EEFCBD
:102D70000126FFF7FBFAFFF75BFDFFF7BBFA94F9BB
:102D80004400401C01D184F844A094F94500401C43
:102D900001D184F845A0FFF7E9FA05A9684600F0DB
:102DA000A3F830B12046FFF77FF900F045FA002084
:102DB000D5E7FFF79FFAA06BE16B884201D10125AF
:102DC00000E00025FFF7D2FA95B104F11000059953
:102DD000FFF74CFC2046FFF767F900F02DFA0028BA
:102DE0009CD1C9F80080BFF34F8FBFF36F8F95E779
:102DF0002046FFF759F900F01FFA8FE72E2E5C2EC0
:102E00002E5C4672656552544F535C7372635C71FD
:102E1000756575652E6300004572726F723A257391
:102E20002C25640D0A00000004ED00E070B50E468C
:102E3000040005D140F23C4220A127A0FEF7D0FDBE
:102E4000206C28B14FF488621CA123A0FEF7C8FDB6
:102E5000206838B9606828B140F2454217A11EA029
:102E6000FEF7BEFDFFF712FB5020EFF3118580F354
:102E70001188BFF34F8FBFF36F8FA16BE06B884258
:102E800018D994F94500491CA163411C04D0401C89
:102E900084F8450001200EE0606A0028FAD004F1B1
:102EA000240000F079F90028F4D0002EF2D001209F
:102EB0003060EFE7002085F3118870BD2E2E5C2E68
:102EC0002E5C4672656552544F535C7372635C713D
:102ED000756575652E6300004572726F723A2573D1
:102EE0002C25640D0A00000070B50D46040005D1C4
:102EF00040F6CB3214A11BA0FEF772FD2DB940F6AF
:102F0000CC3211A117A0FEF76BFDFFF7F3F9194AB8
:102F1000D06829684B1C0FD02368126A934202D0F4
:102F2000626882420AD96268801A884206D2081A08
:102F300028602046FFF70AFC002400E00124FFF788
:102F400015FA204670BD00002E2E5C2E2E5C4672B7
:102F5000656552544F535C7372635C7461736B7339
:102F60002E6300004572726F723A25732C25640D32
:102F70000A000000D40000202DE9FF5F8346DDE950
:102F80000E87994616468A469000FFF7C3F805005B
:102F90001AD05420FFF7BEF8040012D02563002198
:102FA000CDE90241CDE900874B46324651465846AD
:102FB000FEF7A6FF2046FEF783FE012004B0BDE821
:102FC000F09F2846FFF704FA4FF0FF30F6E70000C5
:102FD0000548416919B1006B18B100207047012004
:102FE0007047022070470000D40000202DE9F04116
:102FF0002D4F0026386B40B1B869401CB861F869A4
:1030000000B101263046BDE8F081FD686D1CFD6011
:1030100011D1786B006828B140F6D91223A12AA0FB
:10302000FEF7DEFC786BB96B7963B863386A401CD5
:103030003862FEF7F7FFB86ADFF89C80854209D353
:10304000786B006880B1786BC068C468606885423E
:103050000DD2B8623868C06A00EB800158F82100D0
:103060000128CCD90126CAE74FF0FF30F1E7201D37
:10307000FFF7FCF8A06A18B104F11800FFF7F6F8A2
:10308000E06A01213A6981401143396100EB800116
:1030900008EB8100211DFFF721F9E06A3968C96A50
:1030A0008842CDD30126CBE7D40000202E2E5C2E03
:1030B0002E5C4672656552544F535C7372635C7448
:1030C00061736B732E6300004572726F723A2573E1
:1030D0002C25640D0A0000002005002070B50400B6
:1030E0004FF000063CD01F4D2868844205D040F6C2
:1030F000C7621DA123A0FEF773FCA06C28B940F69F
:10310000C96219A11FA0FEF76BFCA06C401EA06451
:10311000626CE16A914223D010BB201DFFF7A6F834
:103120001C49012250B9E06A00EB800351F82330BA
:1031300023B92B6902FA00F083432B61606CE062D3
:10314000C0F12000A061E06A2B6982401A432A6125
:1031500000EB800001EB8000211DFFF7BFF8012686
:10316000304670BDD40000202E2E5C2E2E5C4672A0
:10317000656552544F535C7372635C7461736B7317
:103180002E6300004572726F723A25732C25640D10
:103190000A000000200500202DE9F041C068C46845
:1031A0002CB940F6613216A11CA0FEF719FC04F1FF
:1031B00018000746FFF75AF81C4D286B012660B12E
:1031C00039461B48FFF78AF8E06A2968C96A8842CD
:1031D00013D90120EE61BDE8F081201DFFF746F80C
:1031E000E06A2A6906FA00F111432961114900EBEE
:1031F000800001EB8000211DE4E70020EBE70000E8
:103200002E2E5C2E2E5C4672656552544F535C73B5
:1032100072635C7461736B732E6300004572726F2E
:10322000723A25732C25640D0A000000D40000209A
:10323000C8070020200500202DE9F0472B4D002471
:103240002746286B28B94FF4FD6229A12FA0FEF76D
:10325000C7FBFFF74FF8286B401E2863286BE8BBBD
:10326000A8682E490126C8B3A1F52A798846D8F85E
:103270000010E9B1D8F80C00C46804F11800FEF79A
:10328000F5FF201DFEF7F2FFE06A2A6906FA00F159
:103290001143296100EB800109EB8100211DFFF73B
:1032A0001DF8E06A2968C96A8842E0D3EE61DEE76A
:1032B0000CB1FEF7B7FEAC693CB1FFF797FE00B169
:1032C000EE61641EF9D10020A861E86930B11449AB
:1032D000012738070860BFF34F8F00E001E0BFF31C
:1032E0006F8FFFF743F83846BDE8F087D400002021
:1032F0002E2E5C2E2E5C4672656552544F535C73C5
:1033000072635C7461736B732E6300004572726F3D
:10331000723A25732C25640D0A000000C8070020AE
:1033200004ED00E0443300080000002038010000F4
:1033300010030008A033000838010020D09A0000D4
:10334000101A000811847A030A68090102030406AE
:103350000708090CA91001301EAA180101C405169E
:1033600002C5AA1902180905CAAA080B022F3001C2
:103370007F312A4D5033D90F2A320F7ADA0F2A3390
:103380000F7ADB0F2A340F7ADC0F2A350F7ADD0F24
:103390002A360F7ADE0F2A370F025BDF1AAA018165
:040000050800018965
:00000001FF
