:020000040800F2
:10000000089C002055020008AB0F0008370D0008BF
:10001000A90F0008D9090008C51400080000000055
:100020000000000000000000000000009D0100082A
:10003000C50B000800000000F1010008991100083C
:100040006F0200086F0200086F0200086F020008CC
:100050006F0200086F0200086F0200086F020008BC
:100060006F0200086F0200086F0200086F020008AC
:100070006F0200086F0200086F0200086F0200089C
:100080006F0200086F0200086F0200086F0200088C
:100090006F0200086F0200086F0200086F0200087C
:1000A0006F0200086F0200086F0200086F0200086C
:1000B0006F0200086F0200086F0200086F0200085C
:1000C0006F0200086F0200086F0200086F0200084C
:1000D0006F020008091200086F0200086F02000892
:1000E0006F0200086F0200086F0200086F0200082C
:1000F0006F0200086F0200086F0200086F0200081C
:100100006F0200086F0200086F0200086F0200080B
:100110006F0200086F0200086F0200086F020008FB
:100120006F0200086F0200086F0200086F020008EB
:100130006F0200086F0200086F0200086F020008DB
:100140006F0200086F0200086F0200086F020008CB
:100150006F0200086F0200086F0200086F020008BB
:100160006F0200086F0200086F0200086F020008AB
:100170006F0200086F0200086F0200086F0200089B
:100180006F0200086F020008DFF80CD000F0AEF834
:100190000048004735170008089C00202A4B1968C2
:1001A0000868B0E8F04F80F30988BFF36F8F4FF015
:1001B000000080F3118870470000000006480068C6
:1001C000006880F3088862B661B6BFF34F8FBFF353
:1001D0006F8F00DF00BF00BF08ED00E0DFF80C000C
:1001E000016841F470010160704700BF88ED00E0D4
:1001F000EFF30980BFF36F8F134B1A681EF0100FD7
:1002000008BF20ED108A20E9F04F106008B44FF0CD
:10021000500080F31188BFF34F8FBFF36F8F02F050
:100220008FF84FF0000080F3118808BC1968086847
:10023000B0E8F04F1EF0100F08BFB0EC108A80F34A
:100240000988BFF36F8F7047D4000020EFF305805B
:10025000704700000648804706480047FEE7FEE773
:10026000FEE7FEE7FEE7FEE7FEE7FEE7FEE7FEE766
:10027000AD1100088901000840EA01039B0703D083
:1002800009E008C9121F08C0042AFAD203E011F8D5
:10029000013B00F8013B521EF9D27047D2B201E097
:1002A00000F8012B491EFBD270470022F6E710B57B
:1002B00013460A4604461946FFF7F0FF204610BDD4
:1002C00030B50B46014600202022012409E021FA26
:1002D00002F59D4205D303FA02F5491B04FA02F523
:1002E0002844151EA2F10102F1DC30BD064C074D79
:1002F00006E0E06840F0010394E8070098471034F6
:10030000AC42F6D3FFF744FFEC2B00080C2C00089E
:1003100070B58C1810F8015B15F0070301D110F8C7
:10032000013B2A1106D110F8012B03E010F8016BF4
:1003300001F8016B5B1EF9D12B0705D40023521E77
:100340000DD401F8013BFAE710F8013BCB1A921CDF
:1003500003E013F8015B01F8015B521EF9D5A142DD
:10036000D8D3002070BD0000FEB501F043FD03228C
:100370000021012002F0C6F8574C206210B157A0AE
:1003800001F0CAF803220021012002F0BBF86062EC
:1003900010B15CA001F0C0F803220021012002F09E
:1003A000B1F8A06210B163A001F0B6F803220021F9
:1003B000012002F0A7F8E06210B16AA001F0ACF8E9
:1003C00003220021012002F09DF8206310B171A0EA
:1003D00001F0A2F802A9606A02F0EAF9029838B1C5
:1003E00078494FF080500860BFF34F8FBFF36F8F95
:1003F00039490220091D0602CDE9000100233246D9
:1004000071A1744802F07AFA012802D172A001F0B9
:1004100083F8314903200C31CDE900010023324635
:1004200074A1774802F06AFA012802D175A001F0A0
:1004300073F8294904200831CDE900010023324630
:1004400077A17A4802F05AFA012802D178A001F087
:1004500063F8214805251030CDE9005000233246CD
:1004600079A17C4802F04AFA012802D17AA001F071
:1004700053F8194800231430CDE9005032467DA1CD
:100480007F4802F03BFA012802D17EA001F044F837
:10049000114800231830CDE90050324680A183482E
:1004A00002F02CFA012802D181A001F035F80A48A7
:1004B00000231C30CDE90050324684A1864802F06A
:1004C0001DFA012802D185A001F026F8206801F06C
:1004D000DDFD01F0CBFCFEBD2400002042696E6111
:1004E000727953656D5F48616E646C65B6FED6B512
:1004F000D0C5BAC5C1BFB4B4BDA8B3C9B9A6210D92
:100500000A000000426F6F6B5F315F42696E61727B
:100510007953656D5F48616E646C65B6FED6B5D083
:10052000C5BAC5C1BFB4B4BDA8B3C9B9A6210D0A27
:1005300000000000426F6F6B5F325F42696E617254
:100540007953656D5F48616E646C65B6FED6B5D053
:10055000C5BAC5C1BFB4B4BDA8B3C9B9A6210D0AF7
:1005600000000000426F6F6B5F335F42696E617223
:100570007953656D5F48616E646C65B6FED6B5D023
:10058000C5BAC5C1BFB4B4BDA8B3C9B9A6210D0AC7
:1005900000000000426F6F6B5F345F42696E6172F2
:1005A0007953656D5F48616E646C65B6FED6B5D0F3
:1005B000C5BAC5C1BFB4B4BDA8B3C9B9A6210D0A97
:1005C0000000000004ED00E04C45445F5461736B93
:1005D00000000000350E0008B4B4BDA85465737463
:1005E0005F5461736BC8CECEF1B3C9B9A6210D0AB1
:1005F00000000000556172745F5461736B0000006D
:1006000071140008B4B4BDA8556172745F5461736D
:100610006BC8CECEF1B3C9B9A6210D0A0000000007
:100620004B45595F5461736B00000000C30D000817
:10063000B4B4BDA84B45595F5461736BC8CECEF1BD
:10064000B3C9B9A6210D0A00426F6F6B5F315F54C9
:1006500061736B00F9060008B4B4BDA8426F6F6BFC
:100660005F315F5461736BC8CECEF1B3C9B9A621B7
:100670000D0A0000426F6F6B5F325F5461736B0055
:10068000ED070008B4B4BDA8426F6F6B5F325F54D2
:1006900061736BC8CECEF1B3C9B9A6210D0A0000B3
:1006A000426F6F6B5F335F5461736B00910800089A
:1006B000B4B4BDA8426F6F6B5F335F5461736BC896
:1006C000CECEF1B3C9B9A6210D0A0000426F6F6BFF
:1006D0005F345F5461736B0035090008B4B4BDA882
:1006E000426F6F6B5F345F5461736BC8CECEF1B3F2
:1006F000C9B9A6210D0A000008B5394D394E0124AB
:100700004FF0FF38002342461946706A01F032FF6D
:100710000128F7D14FF4FA6734B30221284600F0DC
:1007200049FBC0B10421284600F044FB0028F3D166
:100730000A2001F071FC0421284600F03BFB002850
:10074000EAD1012000F086FB384601F065FC00206C
:1007500000F080FBE0E70A2001F05EFC0221284661
:1007600000F028FB0028D7D10124022000F072FB02
:1007700041F2941001F050FC002000F06BFB0421CA
:10078000284600F017FB00284FF00A001FD001F0A8
:1007900043FC002CF3D10124032000F05BFB40F666
:1007A000B83001F039FC002000F054FB6946B06A13
:1007B00001F0FEFF009830B10B4920070860BFF33D
:1007C0004F8FBFF36F8F642001F026FC9AE701F092
:1007D00023FC0421284600F0EDFA0028DBD0D8E7FE
:1007E000000C02402400002004ED00E008B50124C4
:1007F000244D254EA71E00233A461946B06A01F043
:10080000B9FE0128F7D109E00821284600F0D2FA04
:1008100000284FF00A0022D001F0FEFB002CF3D19B
:1008200001241021284600F0C5FA00284FF00A00E4
:100830001ED001F0F1FB002CF3D101246946F06ACF
:1008400001F0B6FF009830B1104920070860BFF3EF
:100850004F8FBFF36F8F642001F0DEFBCBE701F019
:10086000DBFB0821284600F0A5FA0028D6D1D7E7FF
:1008700001F0D2FB1021284600F09CFA0028DCD0C1
:10088000D9E70000000C02402400002004ED00E045
:1008900008B50124244D254EA71E00233A461946CB
:1008A000F06A01F067FE0128F7D109E0202128460F
:1008B00000F080FA00284FF00A0022D001F0ACFBD3
:1008C000002CF3D101244021284600F073FA0028BF
:1008D0004FF00A001ED001F09FFB002CF3D1012441
:1008E0006946306B01F064FF009830B11049200771
:1008F0000860BFF34F8FBFF36F8F642001F08CFB54
:10090000CBE701F089FB2021284600F053FA0028AC
:10091000D6D1D7E701F080FB4021284600F04AFA03
:100920000028DCD0D9E70000000C024024000020A1
:1009300004ED00E008B50124244D254EA71E002338
:100940003A461946306B01F015FE0128F7D109E04F
:100950002021284600F02EFA00284FF00A0022D06D
:1009600001F05AFB002CF3D101244021284600F06D
:1009700021FA00284FF00A001ED001F04DFB002C98
:10098000F3D101246946706A01F012FF009830B17A
:10099000104920070860BFF34F8FBFF36F8F6420AB
:1009A00001F03AFBCBE701F037FB2021284600F0AD
:1009B00001FA0028D6D1D7E701F02EFB40212846C6
:1009C00000F0F8F90028DCD0D9E70000000C024064
:1009D0002400002004ED00E0FEE70000074A9042FA
:1009E00001D2074801E005481038064A8B0001EAA9
:1009F000020101D5C16070478160704710640240F8
:100A0000006002407D0F7D0F0029016802D041F097
:100A1000010101E021F00101016070472DE9F0437F
:100A2000016821F0010101600021016041608160E5
:100A3000C1600161212141613C493C4A3D25103999
:100A4000904202D18D60BDE8F083384A4FF474665D
:100A50001832904201D18E60F5E7344A4FF4741792
:100A60003032904201D18F60EDE7304A4FF0746C24
:100A70004832904202D1C1F808C0E4E72B4B2C4A1F
:100A80006033984201D1CA60DDE7284C294B7834A5
:100A9000A04201D1CB60D6E7DFF89080264C08F168
:100AA0009008404501D1CC60CDE7DFF880804FF061
:100AB0003D5908F1A808404502D1C1F80C90C2E7A1
:100AC0001E49DFF878800839404501D10D60BAE74A
:100AD0001A4D1835A84201D10E60B4E7174D3035D4
:100AE000A84201D10F60AEE7144D4835A84202D1AB
:100AF000C1F800C0A7E7114D10496035091FA84291
:100B000001D10A609FE70D4A7832904201D10B6013
:100B100099E70A4A9032904201D10C6093E7074A64
:100B2000A83290428FD1C1F800908CE7106002404B
:100B30003D000020400F002000003D2010640240D6
:100B40000B0607D5436912B143F0800301E023F09F
:100B500080034361802908D0002A026801F01E0149
:100B600001D00A4300E08A430260704730B5036851
:100B7000124ACC6813400A682243D1E905452C4348
:100B80002243CC6922430C6A22434C6A22438C6A7A
:100B900022434C6B22438C6B22431A43026042690E
:100BA00022F00703D1E90B2422431A4342610A6968
:100BB00042604A6882608968C16030BD3F801CF035
:100BC0004160704770470000F0B5012187B00846CA
:100BD00000F028FA0121102000F030FA022500244C
:100BE0008DF8064001268DF807602802264F8DF803
:100BF000055000908DF804506946384600F048F8DA
:100C0000680200908DF804506946384600F040F8BC
:100C100007220A21384600F077F8072209213846D2
:100C200000F072F84FF4E1300290ADF810400C2063
:100C3000164DADF80C40ADF81200ADF80E40ADF811
:100C4000144002A9284600F04BFB25208DF818001F
:100C500007208DF819008DF81A408DF81B6006A842
:100C600000F0A4F9012240F22441284600F020FBC4
:100C700001224021284600F0EDFA0121284600F02B
:100C8000DFFA07B0F0BD0000000002400010014094
:100C9000F0B5002201274FF0030C0B6807FA02F5AC
:100CA0002B40AB422CD1066853000CFA03F4A64348
:100CB00006600E79D0F800E09E4046EA0E06066017
:100CC0000E79012E01D0022E12D18668A6438660CD
:100CD0004E79D0F808E09E4046EA0E0686604668E7
:100CE000AE43466045688E799640B6B2354345605E
:100CF000C568A543C560CC799C40C3681C43C460EB
:100D0000521C102AC9D3F0BD4B07DB0E9A40C9080C
:100D100010B500EB8100016A0F249C40A1430162E1
:100D2000016A1143016210BD0246002012690A42A5
:100D300000D001207047FEE71CB501210A2000F019
:100D400071F940F2FE30009000208DF8040002207E
:100D5000164C8DF8070069462046FFF799FF694653
:100D60002046FFF795FF69462046FFF791FF694649
:100D70002046FFF78DFF69462046FFF789FF694649
:100D80002046FFF785FF69462046FFF781FF084CA4
:100D900069462046FFF77CFF69462046FFF778FF4B
:100DA00069462046FFF774FF1CBD0000000C02409E
:100DB0000004024010B5FFF7B7FF012800D0002063
:100DC00010BD642001F028F9FBE700002DE9FC418B
:100DD0000121042000F026F901248DF804400020B0
:100DE0008DF806008DF80740DFF8448004258DF863
:100DF0000500009569464046FFF74AFF0826694608
:100E000040460096FFF744FF022769464046009798
:100E1000FFF73EFF694640460094FFF739FF04485C
:100E20001A300580068007800480BDE8FC81000040
:100E300000080240064E04244FF4FA75B71E3480B1
:100E4000284601F0E9F83C80284601F0E5F8F6E78D
:100E50001A08024010B52C4C072805D2DFE800F034
:100E600004131D27313B450005222849204600F088
:100E70003EFB264906220A31204600F038FB234972
:100E80000F2210313AE021490522491D204600F089
:100E90002EFB1E490F221F3130E01C490522491D3F
:100EA000204600F024FB19490F222E3126E0174975
:100EB0000522491D204600F01AFB14490F223D313E
:100EC0001CE012490522491D204600F010FB0F4985
:100ED0000F224C3112E00D490522491D204600F039
:100EE00006FB0A490F225B3108E008490522491D2B
:100EF000204600F0FCFA05490F226A312046BDE881
:100F0000104000F0F4BA0000001401405800002026
:100F100070B586B00121042000F084F80121202062
:100F200000F08CF800248DF8064001208DF80700B1
:100F3000022540201A4E8DF8055000908DF804507F
:100F400069463046FFF7A4FE802000908DF80450DB
:100F500069463046FFF79CFE082207213046FFF71E
:100F6000D3FE082206213046FFF7CEFE4FF416507E
:100F7000ADF80C400290ADF80E40ADF81040ADF861
:100F800014400C20074CADF8120002A9204600F0D6
:100F9000A7F90121204600F053F906B070BD00000A
:100FA0000008024000140140FEE7704730B50F23EF
:100FB000C27801780125FAB1144A126801F1E021E2
:100FC00002F4E062C2F5E062C2F30722C2F1040457
:100FD000D3404278A24084781C401443220181F817
:100FE0000024007800F01F018D404009800000F1CE
:100FF000E020C0F8005130BD01F01F0085404809D5
:10100000800000F1E020C0F8805130BD0CED00E020
:101010000249084302490860704700000000FA05D1
:101020000CED00E0044A0029116801D0014300E002
:10103000814311607047000030380240044A0029A3
:10104000116801D0014300E0814311607047000046
:101050004438024070B5204B1968204C11F00C0147
:1010600004D06610042903D0082903D004601BE0D3
:10107000066019E0184A121F1168C1F38055116803
:1010800001F03F0115B1B6FBF1F101E0B4FBF1F164
:1010900014681268C4F388146143C2F30142521CFD
:1010A0005200B1FBF2F1016019680F2202EA11113E
:1010B0000B4A545C0168E14041601C68072505EA61
:1010C0009424145D21FA04F484601B6805EA533308
:1010D000D25CD140C16070BD083802400024F400E9
:1010E000140000200CB500222749009201920868E4
:1010F00040F4803008604FF4A043086800F40030EA
:1011000001900098401C0090019810B900989842F6
:10111000F3D10868800334D5012001901A4840308B
:10112000026842F0805202601848026842F440426D
:1011300002601548083002680260026842F400420A
:101140000260026842F4A0520260031F104A1A6053
:101150000A6842F080720A600A689201FCD50D4963
:1011600040F205720A60016821F003010160016824
:1011700041F0020101600168C1F381010229FAD145
:101180000CBD01920CBD0000003802400070004010
:1011900008544007003C024010B501F0DBFB012879
:1011A00003D0BDE8104001F097B910BD124810B54A
:1011B000016841F4700101601048016841F00101CB
:1011C00001600E4A00210832116002680C4B1A407F
:1011D0000260031D0B4A1A60026822F4802202603A
:1011E00006480C300160FFF77DFF03494FF00060B7
:1011F0008039086010BD000088ED00E00038024032
:10120000FFFFF6FE1030002470B55020EFF311847C
:1012100080F31188BFF34F8FBFF36F8F074D40F2FC
:101220002441284600F025F820B100F0F7F82846C0
:1012300000F0ACF884F3118870BD0000001001408C
:101240000029818902D041F4005101E021F40051CC
:1012500081817047002A828A01D00A4300E08A43D4
:10126000828270470246002012880A4200D0012084
:10127000704770B501F01F0501260024C1F3421329
:1012800006FA05F2012B0FD0022B0FD0838A4FEA0A
:1012900011210088134206FA01F600EA060001D087
:1012A00000B10124204670BD8389F0E7038AEEE790
:1012B00010B5C1F3421301F01F040121A140012B1D
:1012C00007D0022B07D01430002A026805D00A4349
:1012D00004E00C30F8E71030F6E78A43026010BDF6
:1012E0007FB50446008A0D46C98820F4405001436A
:1012F0002182A08941F20C618843A9882A8911437F
:101300006A8902431143A181A08A20F44071A8890F
:101310000843A0826846FFF79DFE1A48844202D027
:101320001948844201D1039800E00298A189090478
:1013300000EBC00101EB0010296801D5490000E075
:101340008900B0FBF1F06422B0FBF2F109010B0956
:101350006FF018056B4300EB8300A3891D044FF069
:10136000320306D503EBC000B0FBF2F000F007003B
:1013700005E003EB0010B0FBF2F000F00F000843B3
:1013800020817FBD00100140001401408088C0F31F
:1013900008007047C1F308018180704710B5012132
:1013A00090B08805FFF73EFE194C2046FFF736FB4C
:1013B0004FF0006000901748019017480021CDE9D8
:1013C00002014FF47A70CDE904012015CDE9060140
:1013D0008010CDE908104FF44030CDE90A01032018
:1013E000CDE90C010E9169462046FFF7BFFB4FF097
:1013F00081512046FFF7F2FA012204212046FFF72F
:101400009FFB01212046FFF7FFFA10B010BD00003E
:1014100040640240041001403801002038B5114CEE
:1014200000212046FFF7F0FA4FF081512046FFF7E8
:10143000D5FA4FF47A712046FFF7C2FB012120460E
:10144000FFF7E2FA08486946006801F0B1F9009830
:10145000002806D00549A0050860BFF34F8FBFF3F1
:101460006F8F38BD406402404400002004ED00E06E
:101470004FF0FF360C4D0D4C4FF47A770023324677
:101480001946286A01F076F80128F7D1206880F023
:1014900008002060064907A000F03EF839460448DD
:1014A000FEF703FFEAE700002400002014080240D2
:1014B00038010020CAD5B5BDCAFDBEDD3A25730A84
:1014C00000000000FEE770B50D46044640212046AE
:1014D000FFF7C8FE0128F9D129462046FFF75AFF39
:1014E00080212046FFF7BEFE0028F9D070BD70B500
:1014F00014460D46064604E029783046FFF7E3FF20
:101500006D1C641EE4B2F7D240213046FFF7AAFEFC
:101510000028F9D070BD00000FB4054B10B503A929
:10152000044A029800F018F810BC5DF814FB0000A3
:10153000111700083401002002E008C8121F08C17A
:10154000002AFAD170477047002001E001C1121F44
:10155000002AFBD1704700002DE9FF4F8BB09A465F
:101560000F460546002606E025280BD052460D9969
:1015700090476D1C761C28780028F5D10FB03046B6
:10158000BDE8F08F0024A0460122604900E004433A
:1015900015F8013F203B02FA03F00842F7D1287802
:1015A0002E2817D115F8010F44F004042A280ED074
:1015B0006FF02F022878A0F1300109290AD808EB32
:1015C000880102EB410100EB01086D1CF2E757F8BE
:1015D000048B6D1C287869283ED006DC0028CDD00D
:1015E00063280BD0642804D136E0732810D0752806
:1015F0004BD052460D999047761C85E017F8040BA6
:101600008DF8000000208DF80100E946012003E07C
:1016100057F8049B4FF0FF3061074FF0000401D4EE
:101620000AE0641C44450DDA8442FADB19F8041020
:101630000029F6D106E0641C8442FCDB19F8041092
:101640000029F8D1264404E019F8010B52460D99FF
:101650009047641EF8D257E001CF4FF00A0B0028E4
:1016600002DA40422D2102E0210504D52B218DF81C
:101670002410012103E0E10705D02021F7E70DF157
:10168000200908910CE00021F9E701CF4FF00A0B87
:10169000F9E75946FEF714FE01F1300209F8012D71
:1016A0000028F6D1ADEB090000F1200B600701D452
:1016B0004FF00108D84502DDA8EB0B0000E0002048
:1016C0008046002406E009A85246005D0D99904727
:1016D000641C761C08988442F5DB04E030205246F6
:1016E0000D999047761CB8F10001A8F10108F5DCCE
:1016F00005E019F8010B52460D999047761CBBF195
:101700000001ABF1010BF4DC6D1C34E7092801008A
:1017100070B5074D0446C1B22846FFF73BFE802155
:101720002846FFF79FFD0028F9D0204670BD000035
:10173000001001401CB54FF44070FFF769FCFFF743
:1017400045FBFFF7E5FB0020FFF784FBFFF726FED4
:10175000FFF73AFAFFF7F0FA0BA0FFF7DDFE0EA055
:10176000FFF7DAFE0F490120CDE900014202002314
:101770000DA1114801F0C2F8012802D04FF0FF304E
:101780001CBD00F08BFDFEE7496E69742066696E32
:101790006973680D0A00000052544F535F496E6927
:1017A000740A0A00240000204170705461736B4376
:1017B0007265617465000000690300082DE9F0415D
:1017C000184E0F460446F5683068001D00F0CEFA4A
:1017D00038B9306890F82C10012088403169814375
:1017E0003161601C07D137B13168BDE8F0410E4866
:1017F000091D00F0F3BA30682C44AC4244603168F3
:1018000005D2B06BBDE8F041091D00F0CFBA706B96
:10181000091D00F0CBFAB06A844200D2B462BDE880
:10182000F0810000D4000020F00700202DE9F041F5
:10183000054600F0DFFA2D4EB068401CB0603068FD
:101840002B4F10B1706930B32BE03560B0680128C0
:1018500027D1002404EB840007EB800000F098FA05
:10186000641C202CF6D3234800F092FA214814304F
:1018700000F08EFA1F48283000F08AFA1D483C30EC
:1018800000F086FA1B48503000F082FA1948706365
:101890001430B06305E03068E96AC06A884200D855
:1018A0003560706A0121401C7062E86A32698140CB
:1018B0001143316100EB800007EB8000291D00F02F
:1018C0008DFA00F0D3FA706900280CD03068E96A0C
:1018D000C06A884207D208494FF080500860BFF3C1
:1018E0004F8FBFF36F8FBDE8F0810000D400002060
:1018F00020050020A007002004ED00E070B5124E86
:10190000124D1CE000F014FD306820B1002401F0FD
:10191000F7F8A4B901E00124F9E700F06BFAF068E8
:10192000C468201D00F022FAA868401EA8606868FC
:10193000401E686000F09AFA204600F01CF86868C3
:101940000028DFD170BD0000DC070020D40000209B
:1019500030B4026C0B46002A0BD0C1681144C16040
:101960004468A14201D30168C16030BC1846FEF74B
:1019700083BC30BC704710B50446006B00F0A8FA79
:101980002046BDE8104000F0A3BA000010484FF414
:101990001041420706D0C01D0D4920F00700411A32
:1019A000C1F510410B4A00230144C2E90003083984
:1019B000103A21F0070111604B600B600B1AC0E96F
:1019C000001393604FF000405360D06070470000F8
:1019D0000408002020010020074E4FF08054074DDE
:1019E000FFF78CFF30680128FAD92C60BFF34F8FC6
:1019F000BFF36F8FF4E700002005002004ED00E046
:101A00002DE9F047DDE909840E4682466FF00301B7
:101A1000206B01EB82010844089D20F007079946DE
:101A2000780705D040F22B3219A120A0FFF774FDF2
:101A300000202218315C82F83410315C11B1401C56
:101A40001028F6D3002684F84360202D00D31F25EC
:101A5000E562C4E91156201D00F0A5F904F1180053
:101A600000F0A1F92461C5F120006462A061E66480
:101A700084F850604A465146384600F061F92060CB
:101A8000B8F1000F01D0C8F80040BDE8F0870000B1
:101A90002E2E5C2E2E5C4672656552544F535C733D
:101AA00072635C7461736B732E6300004572726FB6
:101AB000723A25732C25640D0A00000030B51149D7
:101AC00000E011460A688242FBD34B685C188442EE
:101AD00003D1406818444860084643681C18944283
:101AE00009D1084C103C2468A24209D052681A441B
:101AF00042600A6812680260814200D0086030BD0E
:101B00000460F9E72001002010B5044600F072F9E6
:101B1000A06B20B1002400F0A9F9204610BD0124DB
:101B2000F9E700000648416B096829B1416BC968B3
:101B3000C9684968816270474FF0FF31FAE70000D9
:101B4000D400002008484068401C05D040F20F1225
:101B500006A111A0FFF7E0FC502080F31188BFF32D
:101B60004F8FBFF36F8FFEE7280100202E2E5C2ED3
:101B70002E5C4672656552544F535C706F72745C94
:101B8000525644535C41524D5F434D34465C706F36
:101B900072742E63000000004572726F723A2573F2
:101BA0002C25640D0A0000002DE9F041044600F0E8
:101BB00021F994F9455004F1240609E0606A48B11E
:101BC000304600F04DFF08B100F0CAFA6D1E6DB24C
:101BD000002DF3DC4FF0FF3684F8456000F046F945
:101BE00000F008F994F9445004F1100709E0206965
:101BF00048B1384600F034FF08B100F0B1FA6D1E6C
:101C00006DB2002DF3DC84F84460BDE8F04100F0D3
:101C10002DB900002DE9F0410546002600F088FBB3
:101C2000324F386808B9FFF7B1FEF86805424FD166
:101C3000002D4DD0083568070BD005F00700C0F126
:101C400008000544680704D0BF2229A132A0FFF78D
:101C500063FC002D3CD07868854239D82349103187
:101C60000846046801E0214604466068A84202D2A2
:101C700020680028F7D13868B846844228D00E681A
:101C80002068086060680836401B10280ED9671964
:101C9000780704D0EC2216A11FA0FFF73DFC606876
:101CA000401B786038466560FFF708FF6168D8F828
:101CB00004004246401AC8F80400D8F80830984298
:101CC00000D29060D8F80C0001430020C4E9000164
:101CD00000F016FF700705D04FF4967204A10EA015
:101CE000FFF71AFC3046BDE8F0810000100100202B
:101CF0002E2E5C2E2E5C4672656552544F535C70DE
:101D00006F72745C4D656D4D616E675C6865617086
:101D10005F342E63000000004572726F723A2573C3
:101D20002C25640D0A0000000449086818B10868F1
:101D3000826C521C8264086870470000D400002046
:101D400010B5031F4FF080741C601B1F21F00101B0
:101D50001960191F044B0B6014390A60091F6FF0DA
:101D6000020244380A6010BD451B0008D0E9013268
:101D700001699A60D0E901235A604A68824201D120
:101D800082684A60002202610868401E086070474D
:101D900000F108014FF0FF32C0E90112C16001619A
:101DA00000210160704700210161704730B50C6867
:101DB000621C02D000F1080202E0026904E01A4647
:101DC00053681D68A542FAD953684B6099608A60D0
:101DD000516008610168491C016030BD42684A6079
:101DE00093688B6093685960916008610168491C31
:101DF00001607047502080F31188BFF34F8FBFF30D
:101E00006F8F09494868401C486001280AD107487B
:101E1000006810F0FF0F05D040F2B91204A10FA026
:101E2000FFF77ABB704700002801002004ED00E0B6
:101E30002E2E5C2E2E5C4672656552544F535C709C
:101E40006F72745C525644535C41524D5F434D3443
:101E5000465C706F72742E63000000004572726FF2
:101E6000723A25732C25640D0A00000010B5084C49
:101E7000606828B94FF4E07206A111A0FFF74CFB8F
:101E80006068401E606001D180F3118810BD0000C1
:101E9000280100202E2E5C2E2E5C46726565525461
:101EA0004F535C706F72745C525644535C41524D98
:101EB0005F434D34465C706F72742E630000000007
:101EC0004572726F723A25732C25640D0A0000006A
:101ED00070B500282AD0164DA0F108046068E968A2
:101EE000084205D14FF4A07212A11CA0FFF714FB09
:101EF000206828B140F241120EA118A0FFF70CFB98
:101F00006068E968084211D02268002A0ED188432F
:101F1000606000F00DFA60686968084468602046F7
:101F2000FFF7CCFDBDE8704000F0EABD70BD0000D9
:101F3000100100202E2E5C2E2E5C467265655254D8
:101F40004F535C706F72745C4D656D4D616E675C74
:101F5000686561705F342E63000000004572726F27
:101F6000723A25732C25640D0A00000006484FF4D0
:101F70007A710068B0FBF1F14FF0E020491E416139
:101F800007210161704700000000002010B5FEF736
:101F90005DF9104C10280CD300F1E02090F8F0030C
:101FA0002178884205D24FF440720BA115A0FFF7AB
:101FB000B3FA18480068A16800F4E060884207D9C5
:101FC000BDE810404FF4447203A10EA0FFF7A4BA7D
:101FD00010BD0000280100202E2E5C2E2E5C4672C3
:101FE000656552544F535C706F72745C5256445323
:101FF0005C41524D5F434D34465C706F72742E638A
:10200000000000004572726F723A25732C25640D32
:102010000A0000000CED00E010B5040012D00E49DB
:10202000096B29B140F2CF420CA113A0FFF774FA5B
:1020300000F07EF900212046FFF7C0FB00F060FDB4
:10204000002807D110494FF080500860BFF34F8F30
:10205000BFF36F8F10BD0000D40000202E2E5C2E29
:102060002E5C4672656552544F535C7372635C74A8
:1020700061736B732E6300004572726F723A257341
:102080002C25640D0A00000004ED00E070B5044644
:10209000FFF7B0FE234D04B92C68201DFFF766FE44
:1020A00058B9E06A204A00EB800152F8211021B9AA
:1020B00001218140286988432861A06A18B104F190
:1020C0001800FFF753FE686A401C68622868844263
:1020D00007D1211D1548FFF781FE6868401C686024
:1020E00007E0A868401EA8602046FFF744FCFFF701
:1020F00019FDFFF7BBFE6869002812D028688442EA
:102100000FD1286B28B140F2654209A10FA0FFF75B
:1021100003FA12494FF080500860BFF34F8FBFF3AE
:102120006F8F70BDD400002020050020DC07002048
:102130002E2E5C2E2E5C4672656552544F535C7396
:1021400072635C7461736B732E6300004572726F0F
:10215000723A25732C25640D0A00000004ED00E09E
:1021600001490120C8617047D400002070B50D46B8
:10217000040005D140F6063207A10EA0FFF7CCF906
:102180001048016820461831FFF710FE2846BDE8C8
:1021900070400121FFF712BB2E2E5C2E2E5C467282
:1021A000656552544F535C7372635C7461736B73F7
:1021B0002E6300004572726F723A25732C25640DF0
:1021C0000A000000D400002070B5040039D01D4D75
:1021D000E06A2968C96A884233D2A069002804DB12
:1021E0002868C06AC0F12000A061E06A164E00EBCA
:1021F0008000616906EB800081421FD1201DFFF73E
:10220000B5FD012150B9E06A00EB800256F82220AA
:1022100022B92A6901FA00F082432A612868C06A5B
:10222000E0622A6981401143296100EB800006EBDE
:102230008000211DBDE87040FFF7D0BD2868C06A4E
:10224000E06270BDD40000202005002010B504001D
:1022500005D140F6C13205A10BA0FFF75DF90E488C
:10226000016A2160C068606010BD00002E2E5C2EE7
:102270002E5C4672656552544F535C7372635C7496
:1022800061736B732E6300004572726F723A25732F
:102290002C25640D0A000000D40000201CB5154850
:1022A0000024CDE900402346802213A1144800F009
:1022B00025FB01280AD0401C1BD102B040F28472D9
:1022C000BDE810400FA116A0FFF726B9502080F3FB
:1022D0001188BFF34F8FBFF36F8F06484FF0FF3168
:1022E0002C38816201214161C460BDE81C4000F0CE
:1022F00069B81CBD0001002049444C4500000000A5
:10230000D91900082E2E5C2E2E5C4672656552543B
:102310004F535C7372635C7461736B732E63000064
:102320004572726F723A25732C25640D0A00000005
:102330000248016B491C016370470000D400002073
:1023400070B5134D286B10B10120E86170BD0020FD
:10235000E86128690F4EB0FA80F0C0F11F0000EB71
:10236000800456F8240028B940F6F6220AA111A0EC
:10237000FFF7D2F806EB840000F1080241684968D3
:102380004160914201D149684160C868286070BDD0
:10239000D4000020200500202E2E5C2E2E5C4672DC
:1023A000656552544F535C7372635C7461736B73F5
:1023B0002E6300004572726F723A25732C25640DEE
:1023C0000A0000001CB5304C20683049884205D115
:1023D00040F259122EA139A0FFF79EF820682B4930
:1023E000491E884205D14FF4AD7229A133A0FFF7F1
:1023F00093F8364C20780190FF20207020788DF8DB
:1024000000009DF800009DF8001000F0F0008842E8
:1024100005D040F273121EA128A0FFF77DF89DF8A9
:1024200000002B4A00F0500010700720906007E079
:102430009068401E90609DF8000040008DF80000FC
:102440009DF800000006F3D4107A000200F4E0606A
:102450009060019820700C482030016841F47001B0
:102460000160016841F070410160FFF77FFD0020CD
:102470005060FDF7B3FE1748016841F0404101602C
:10248000FDF79CFE00201CBD00ED00E071C20F4175
:102490002E2E5C2E2E5C4672656552544F535C7036
:1024A0006F72745C525644535C41524D5F434D34DD
:1024B000465C706F72742E63000000004572726F8C
:1024C000723A25732C25640D0A00000000E400E038
:1024D0002801002034EF00E010B5502080F311886F
:1024E000BFF34F8FBFF36F8F00F042FA18B104496A
:1024F0004FF080500860002080F3118810BD00006C
:1025000004ED00E070B50E46050005D14FF4C4722D
:102510000DA114A0FFF700F896B105FB06F04830B6
:10252000FFF778FB040009D004F1480120464EB1C2
:102530000160C0E90F56012100F0E2F8204670BDAD
:102540000020ECE70060F4E72E2E5C2E2E5C467235
:10255000656552544F535C7372635C717565756544
:102560002E6300004572726F723A25732C25640D3C
:102570000A0000002DE9FF4F83B09B468A46040005
:102580004FF0000605D140F2DC4251A157A0FEF702
:10259000C3FFBAF1000F07D1206C28B140F2DD4231
:1025A0004BA152A0FEF7B8FF00F0D4F938B9059856
:1025B00028B14FF49C6246A14CA0FEF7ADFF4FF04E
:1025C00000094FF08057DFF83481FFF713FCA56B4B
:1025D00045B351462046E668FFF7BAF9BBF1000F54
:1025E00013D0E660606A50B104F1240000F038FABC
:1025F00028B1C8F80070BFF34F8FBFF36F8FFFF79C
:1026000035FC012007B0BDE8F08F6D1EA563206882
:1026100010B9FFF789FB606020690028EFD004F152
:102620001000E3E7059808B11EB106E0FFF71EFCB5
:1026300027E06846FFF70AFE0126FFF717FCFFF7C1
:1026400077FEFFF7D7FB94F94400401C01D184F8D2
:10265000449094F94500401C01D184F84590FFF75F
:1026600005FC05A9684600F001F9002820460AD0BB
:10267000FFF79AFA00F044FA2046FFF745FA0028DF
:10268000A3D00020BEE7FFF73FFAD8B1206830B9E9
:10269000FFF7B0FB6068FFF797FDFFF7E7FB04F17A
:1026A00024000599FFF762FD2046FFF77DFA00F050
:1026B00027FA002889D1C8F80070BFF34F8FBFF305
:1026C0006F8F82E72046FFF76FFA00F019FA7CE778
:1026D0002E2E5C2E2E5C4672656552544F535C73F1
:1026E00072635C71756575652E6300004572726F6B
:1026F000723A25732C25640D0A00000004ED00E0F9
:1027000070B50D46040005D140F21B121CA123A098
:10271000FEF702FFFFF76EFBD4E90F20216802FBF2
:10272000001161600021A1632168A1600A46D4E91B
:102730000F01401E00FB0121E16021464FF0FF30F8
:1027400001F8440F487004F110004DB1FFF720FB71
:1027500004F12400FFF71CFBFFF788FB012070BD8C
:1027600021690029F8D000F07BF90028F4D00F4946
:102770004FF080500860BFF34F8FBFF36F8FEBE7D0
:102780002E2E5C2E2E5C4672656552544F535C7340
:1027900072635C71756575652E6300004572726FBA
:1027A000723A25732C25640D0A00000004ED00E048
:1027B00070B50E46040005D140F23C4220A127A08E
:1027C000FEF7AAFE206C28B14FF488621CA123A05A
:1027D000FEF7A2FE206838B9606828B140F2454291
:1027E00017A11EA0FEF798FEFFF7D0FB5020EFF3D5
:1027F000118580F31188BFF34F8FBFF36F8FA16BEB
:10280000E06B884218D994F94500491CA163411C2A
:1028100004D0401C84F8450001200EE0606A0028C6
:10282000FAD004F1240000F01BF90028F4D0002EA7
:10283000F2D001203060EFE7002085F3118870BDF1
:102840002E2E5C2E2E5C4672656552544F535C737F
:1028500072635C71756575652E6300004572726FF9
:10286000723A25732C25640D0A00000070B50D46E0
:10287000040005D140F6CB3214A11BA0FEF74CFE9C
:102880002DB940F6CC3211A117A0FEF745FEFFF797
:10289000B1FA194AD06829684B1C0FD02368126A14
:1028A000934202D0626882420AD96268801A8842E2
:1028B00006D2081A28602046FFF7C8FC002400E072
:1028C0000124FFF7D3FA204670BD00002E2E5C2EA7
:1028D0002E5C4672656552544F535C7372635C7430
:1028E00061736B732E6300004572726F723A2573C9
:1028F0002C25640D0A000000D40000202DE9FF5FA4
:102900008346DDE90E87994616468A469000FFF712
:1029100081F905001AD05420FFF77CF9040012D089
:1029200025630021CDE90241CDE900874B463246BF
:1029300051465846FFF764F82046FEF777FF01201E
:1029400004B0BDE8F09F2846FFF7C2FA4FF0FF3011
:10295000F6E700000548416919B1006B18B1002085
:10296000704701207047022070470000D40000200B
:102970002DE9F0412D4F0026386B40B1B869401C5D
:10298000B861F86900B101263046BDE8F081FD6804
:102990006D1CFD6011D1786B006828B140F6D9122A
:1029A00023A12AA0FEF7B8FD786BB96B7963B863F1
:1029B000386A401C3862FFF7B5F8B86ADFF89C80C7
:1029C000854209D3786B006880B1786BC068C468B1
:1029D000606885420DD2B8623868C06A00EB800139
:1029E00058F821000128CCD90126CAE74FF0FF3062
:1029F000F1E7201DFFF7BAF9A06A18B104F1180039
:102A0000FFF7B4F9E06A01213A6981401143396165
:102A100000EB800108EB8100211DFFF7DFF9E06A80
:102A20003968C96A8842CDD30126CBE7D40000209B
:102A30002E2E5C2E2E5C4672656552544F535C738D
:102A400072635C7461736B732E6300004572726F06
:102A5000723A25732C25640D0A0000002005002021
:102A60002DE9F041C068C4682CB940F6613216A166
:102A70001CA0FEF751FD04F118000746FFF776F998
:102A80001C4D286B012660B139461B48FFF7A6F99B
:102A9000E06A2968C96A884213D90120EE61BDE85D
:102AA000F081201DFFF762F9E06A2A6906FA00F159
:102AB00011432961114900EB800001EB8000211DC9
:102AC000E4E70020EBE700002E2E5C2E2E5C467221
:102AD000656552544F535C7372635C7461736B73BE
:102AE0002E6300004572726F723A25732C25640DB7
:102AF0000A000000D4000020C807002020050020A4
:102B00002DE9F0472B4D00242746286B28B94FF4B8
:102B1000FD6229A12FA0FEF7FFFCFFF76BF9286BE0
:102B2000401E2863286BE8BBA8682E490126C8B35D
:102B3000A1F52A798846D8F80010E9B1D8F80C0038
:102B4000C46804F11800FFF711F9201DFFF70EF912
:102B5000E06A2A6906FA00F11143296100EB80015D
:102B600009EB8100211DFFF739F9E06A2968C96A7C
:102B70008842E0D3EE61DEE70CB1FEF7D3FFAC692B
:102B80003CB1FFF7F5FE00B1EE61641EF9D1002003
:102B9000A861E86930B11449012738070860BFF31C
:102BA0004F8F00E001E0BFF36F8FFFF75FF938460A
:102BB000BDE8F087D40000202E2E5C2E2E5C4672DD
:102BC000656552544F535C7372635C7461736B73CD
:102BD0002E6300004572726F723A25732C25640DC6
:102BE0000A000000C807002004ED00E00C2C0008DB
:102BF000000000203801000010030008682C0008C5
:102C000038010020D09A00004815000811847A038A
:102C10000A680901020304060708090CA91001301B
:102C20001EAA180101C4051602C5AA190218090531
:102C3000CAAA080B022F30017F312A4D5033D90F19
:102C40002A320F7ADA0F2A330F7ADB0F2A340F7AFF
:102C5000DC0F2A350F7ADD0F2A360F7ADE0F2A377E
:082C60000F025BDF1AAA0181DB
:040000050800018965
:00000001FF
